:020000040800F2
:10000000F0060020C90000083145000865370008E7
:1000100000000000000000000000000000000000E0
:10002000000000000000000000000000374500084C
:1000300000000000000000003545000839450008B8
:10004000DB00000800000000DB000008DB00000807
:10005000DB000008DB000008DB000008DB00000814
:1000600000000000890A0008DB000008DB0000082F
:10007000DD070008DB000008DB00000800000000CE
:10008000BD450008CD45000800000000DB00000869
:10009000DB000008DB000008DB000008DB000008D4
:1000A00069370008DB000008DB0000080D4D000880
:1000B000DB0000080348854600F00CFB00480047C1
:1000C000E1510008F006002004488047044800473A
:1000D000FEE7FEE7FEE7FEE7FEE7FEE7BB450008BA
:1000E000B500000830B50B4601460020202201244F
:1000F00009E00D46D5409D4205D31D469540491B5C
:100100002546954040191546521E002DF1DC30BDA4
:10011000F0B51FB40646002082B005464024019188
:1001200000901BE0019922460F46304600F020F86F
:10013000049A059B801A994110D31046194622460D
:1001400000F05EF9361A8F41019722460120002106
:10015000009F00F055F938184D4100902046641E6C
:100160000028DFDC019B00982946324607B0F0BD2D
:1001700010B5202A04DB0846203AD040002110BDEB
:100180000B46D340D0402024A21A91400843194680
:1001900010BDD2B201E00270401C491EFBD2704774
:1001A0000022F6E710B513460A4604461946FFF743
:1001B000F0FF204610BDF8B502464A40D40F420079
:1001C0004B0052085B089A4202D20246084611468A
:1001D0004A0023D0C30D4A00DDB2120EAD1A202D05
:1001E00035DA49020126490AF6058A19002C00D0A1
:1001F000524220214F1B1146B9402A411018C20D0E
:100200009A4221D0002C17D0012D08DCDA05801A83
:10021000D20F8019D207DBB200F00AF9F8BDDA0577
:10022000801A012340001B06C01880185A4280180B
:10023000CA0F1043490007E04908C2071143DA0515
:10024000801A80194008801800F0EAF8F8BD6100B3
:100250000122511A001BF7E70122D2075140AAE7F9
:100260000122D2075040A6E7024670B54A40D30F9C
:10027000DB0740002DD04A002AD0010E140E0002E8
:1002800012020919400A520A8418E501044654432F
:10029000000A120A2E045043A4194219200CC54327
:1002A000AA18120C0125AD03521C521912047F39F1
:1002B000240400D0521C104301D44000491EC2B295
:1002C0000C06C0092018401C4008802A02D003E018
:1002D000002070BD40084000002900DA00201843CB
:1002E00070BD70B502464A40D50F40004A00ED0788
:1002F00040085208002814D0002A12D0C40DD30D93
:1003000041020120C0055202490A520AE41A0918A2
:1003100012187D34914201D3641C00E04900002C86
:1003200001DA002070BD0023914201D3891A0343F2
:10033000400849000028F7D100290AD0914202D193
:100340000121C90705E0914201D2012101E001210B
:10035000C943E005C018401900F062F870BDC2172B
:10036000C10F504010B54018CA079623002100F075
:100370005FF810BD410040020122400AD205090E7B
:1003800080187F2901DA00207047962903DC962225
:10039000511AC84070479639884070474A0009038F
:1003A0000123090B1B051943094B10B5520D9A4245
:1003B00001DA002010BD064B34339A4203DC9A1A4E
:1003C000FFF7D6FE10BD03495118884010BD00004C
:1003D000FF030000CDFBFFFFC20FD2074000400823
:1003E0000BD0C10D0723DB01C91840020905400AE3
:1003F0001143C2084007114370470020014670476F
:1004000010B5202A04DB0146203A9140002010BD9F
:10041000914020239C1A0346E3401943904010BDAD
:10042000002904DA401C490001D14008400070470F
:1004300070B40024050C05D11024000402D1002959
:1004400021D01124050E01D100020834050F01D17D
:100450000001241D850F01D18000A41C002801DBB0
:100460004000641C002908D020252E1B0D46F540B5
:10047000A14000D001212943084301061B1B000AAB
:10048000DB1D02D5002070BC7047DB0518188018F2
:100490000029F8DA401C4900F5D170BC4008400042
:1004A00070470000F0B507460846584087B0C00FB7
:1004B000049048000E46590040084908BC1A88417B
:1004C00005D2384631461E4617460B4602465800AE
:1004D000400810434CD0300D039040055900400DAA
:1004E000490D0590401A0290402872DA1803012144
:1004F000000B09050843019004980092002805D0DC
:1005000001995242002088410092019002984021B6
:100510000A1A01990098FFF773FF05460C466B46CF
:1005200007CB00F0E9F8C0197141039A0E0D0023C2
:10053000D71756401A467A40164344D0049A002AE8
:100540002DD0029A012A039A15DC1205C01A914196
:1005500001263605001C7141D20F059ED20700937B
:10056000019202962A46234600F0E6F807B0F0BD55
:1005700038463146FAE71605224A0F46B218C01A25
:10058000B74101210905001C4F4100187F41114668
:1005900018187941E20F10436D19644113E0E20726
:1005A0006D0815436408C2071443039A0126120517
:1005B000C01A91413605001C7141CE0740083043F6
:1005C0004908C01851412A46234600F0A8F8CDE753
:1005D000FFE7049801224000C117121A00238B4143
:1005E00004983146C417381AA141EEE730B401240B
:1005F000E407634030BC55E730B40124E4076140B0
:1006000030BC4FE70000E0FFF8B505464800400861
:100610000C46284304D06000184A400D904201DD8A
:100620002846F8BD15493539884210DC88420BDB75
:10063000290D200308432903014305D0E00F104989
:10064000C00741180020F8BD00200146F8BD161A69
:100650004020821B28462146FFF7D2FE0746009124
:10066000284621463246FFF783FD3A46009B00F0BC
:1006700056F83246FFF7C4FEF8BD00003304000010
:100680000000F03F10B5002904DB0124E4074042DC
:100690008C412146002B04DB1C460123DB07524220
:1006A000A3418B4200D1824210BD000010B5002949
:1006B00004DB0124E40740428C412146002B04DB8B
:1006C0001C460123DB075242A341994200D19042CC
:1006D00010BD0000064C0125064E05E0E36807CC7E
:1006E0002B430C3C98471034B442F7D3FFF7E6FC99
:1006F000745600089456000810B5202A06DBCB1764
:100700000846203A1041C1170B4306E00B4613413F
:10071000D0402024A21A91400843194610BD10B5BC
:10072000002B08DA0024401C614192185B411A43F7
:1007300001D14008400010BDF0B51FB482B005469D
:100740000C0003D0084604F0E9FA02E004F0E6FAEF
:1007500020300246009021462846FFF751FE049BB8
:10076000059A04460F4618431143084314D018460F
:1007700010431BD0009840210A1A18460599FFF72C
:10078000F7FC05460E46009A05990498FFF738FED7
:10079000084305D0012004E02046394607B0F0BDEB
:1007A0000020C11705430E432C43374300990E9890
:1007B0006305401A7905E40A00220C43FD0A0A3059
:1007C00002D500200146E9E70105101969410C9C9A
:1007D0000D9D00196941FFF7A2FFDFE710B5024840
:1007E00000F08EFB10BD0000EC00002070B5044648
:1007F000002520688068042108408008002829D04E
:1008000020688068084004280BD120688068022195
:100810000840002805D1206880681021084321681D
:10082000886001F01DF905460EE001F019F9401B42
:10083000022809D9A06B10210843A063E06B0121B5
:100840000843E063012070BD2068806804210840EF
:100850000028EAD10020F6E770B505466C6AA06B67
:1008600050210840002835D1A06B012149020843DE
:10087000A0632068C068032189020840002825D1B0
:10088000A07E002822D1206800680821084008289E
:100890001CD12068806804210840800800280DD100
:1008A000206840680C21884321684860A06BFF21C4
:1008B0000131884301210843A06307E0A06B202198
:1008C0000843A063E06B01210843E063204600F089
:1008D00061FA03E0206B016B2846884770BD70B554
:1008E00005466C6AA06B40210843A063E06B0421BD
:1008F0000843E063204600F002FB70BD70B504467B
:10090000656A284600F0FAFA70BD70B50446002505
:10091000206880688007800F01280ED12068006859
:10092000C007C00F002806D12068C0680121C90394
:100930000840884201D1012000E00020002837D083
:100940002068806805210840012800D100E00020CF
:1009500000280AD000BF206880680221084321686F
:10096000886003202168086009E0A06B102108431B
:10097000A063E06B01210843E063012070BD01F03A
:100980006FF805460EE001F06BF8401B022809D90C
:10099000A06B10210843A063E06B01210843E063D2
:1009A0000120EBE720688068C007C00F0028EAD16B
:1009B0000020E3E738B504460025002000902068B9
:1009C00080688007800F01280ED120680068C0076A
:1009D000C00F002806D12068C0680121C903084063
:1009E000884201D1012000E00020002843D1206886
:1009F000806822490840002801D1012000E0002041
:100A0000002809D1A06B10210843A063E06B0121ED
:100A10000843E063012038BD206880680121084355
:100A200021688860164917480068FFF75BFB009053
:100A300002E00098401E009000980028F9D101F0D3
:100A40000FF805460EE001F00BF8401B022809D90B
:100A5000A06B10210843A063E06B01210843E06311
:100A60000120D8E720680068C007C00F0121484076
:100A700048400028E7D00020CDE7000017000080A4
:100A800040420F003400002010B5024800F00CFD79
:100A900010BD00002C01002010B50446054A216855
:100AA000881A1421FFF71EFB8000206401480838D3
:100AB000E06310BD0800024030B50124056CAC4075
:100AC000C56B6C60046863604468102C04D10468D2
:100AD000A2600468E16003E00468A1600468E26069
:100AE00030BD72B600BFFEE700200749C861074865
:100AF000006904210843054908610846006940214E
:100B00000843024908617047D002002000200240DB
:100B10000021084AD1610849096902221143064AA5
:100B2000116111464861096940221143024A11616D
:100B300070470000D0020020002002400022054B38
:100B4000DA61054A126901231A43034B1A610180D5
:100B500070470000D00200200020024000200F4912
:100B6000C96810221140102907D10D49C969022214
:100B700011430B4AD161102108430849C968042276
:100B80001140042907D10649C96901221143044AC9
:100B9000D161042108430149C86070470020024028
:100BA000D002002070B5044600F05AFF05460BE065
:100BB000601C002808D0002C04D000F051FF401B1E
:100BC000A04201D9032070BD0F48C068C007C00F04
:100BD0000028EDD10C48C06820210840202801D110
:100BE0000949C8600848C06810210840102805D08D
:100BF0000548C06804210840042803D1FFF7AEFF70
:100C00000120E0E70020DEE700200240F8B50446BE
:100C10000D4600260020009001210907E06A884265
:100C200015D0E06A012812D0E06A02280FD0E06AED
:100C300003280CD0E06A042809D0E06A052806D011
:100C4000E06A062803D0E06A072800D000BF00BF92
:100C50003420005D012801D10220F8BD012134209B
:100C6000015500BF206880680421084080080028E2
:100C70007BD14449686888425BD02068806A2A78C2
:100C80000121914008432168886201210907E06A37
:100C9000884229D0E06A012826D0E06A022823D0C1
:100CA000E06A032820D0E06A04281DD0E06A052805
:100CB0001AD0E06A062817D0E06A072814D0A8687E
:100CC000216849694907490F88420DD02068406969
:100CD000C008C0002168486120684069297A490736
:100CE000490F0843216848612868102802D0286805
:100CF00011283FD1244880682968102901D1C904EE
:100D000001E00121890508431F49886028681028EF
:100D100030D11E491E480068FFF7E4F90A21484314
:100D2000009002E00098401E009000980028F9D141
:100D300020E02068806A2A78012191408843216858
:100D400088622868102802D02868112812D10E481D
:100D500080682968102902D1C90402E005E0012158
:100D6000890588430849886004E0A06B2021084376
:100D7000A063012600BF00213420015500BF30468A
:100D80006BE70000011000000027014040420F0007
:100D900034000020F1B582B0002400270025002097
:100DA00001900026029800F0DDFA00BF00BF00BFEE
:100DB0001BE0A000C01985B268004C49085A4C4994
:100DC000884202DD084601900BE068004749085A56
:100DD0004B2802DA4B20019003E068004349085A8F
:100DE000019001983618601C84B2102CE1DB3003AE
:100DF000000C404908800026012700241BE0A000C9
:100E0000C01985B268003949085A3949884202DD5B
:100E1000084601900BE068003449085A4B2802DA72
:100E20004B20019003E068003049085A0190019876
:100E30003618601C84B2102CE1DB3003000C2D4905
:100E400048800026022700241BE0A000C01985B2BC
:100E500068002649085A2649884202DD0846019062
:100E60000BE068002149085A4B2802DA4B20019018
:100E700003E068001D49085A019001983618601C6B
:100E800084B2102CE1DB3003000C1A498880002664
:100E9000032700241BE0A000C01985B26800134995
:100EA000085A1349884202DD084601900BE06800A9
:100EB0000E49085A4B2802DA4B20019003E06800E3
:100EC0000A49085A019001983618601C84B2102C07
:100ED000E1DB3003000C0749C88007480078022195
:100EE0008843801C04490870FEBD00006A00002091
:100EF000B40F0000140000201C0000207047704751
:100F000010B504462068006804210840042804D174
:100F100020684068084004280AD02068006808213A
:100F20000840082840D120684068084008283BD184
:100F3000A06B10210840002803D1A06B4901084391
:100F4000A0632068C068032189020840002825D1D9
:100F5000A07E002822D120680068082108400828C7
:100F60001CD12068806804210840800800280DD129
:100F7000206840680C21884321684860A06BFF21ED
:100F80000131884301210843A06307E0A06B2021C1
:100F90000843A063E06B01210843E0632046FFF7AC
:100FA000F9FE0C2021680860206800688021084054
:100FB00080280ED1206840680840802809D1A06BA5
:100FC00049020843A063204600F008F98020216808
:100FD0000860206800681021084010281AD1206895
:100FE00040680840102815D1A06A012805D0206863
:100FF000C068C007C00F002809D0E06B0221084379
:10100000E0631020216808602046FFF778FF102079
:101010002168086010BD000070B504460026002558
:10102000002C01D1012070BDA06B002806D1E06327
:10103000002134200155204600F0D2F8A06B102189
:10104000084000287ED1002EFCD120688068042151
:10105000084080080028F5D1A06B8901884302214F
:101060000843A063206880688007800F01280DD1A5
:1010700020680068C007C00F002805D12068C0683C
:1010800089030840884201D1012000E000200028A7
:101090000FD12068C06818218843A16808432168DF
:1010A000C860206800698000800861680843216882
:1010B00008612068C068474908402168C860207EF0
:1010C0008003617EC9030843A17E49030843A16AE6
:1010D000012902D00121090300E000210843E16851
:1010E00008432169022901D1042100E000210843BD
:1010F0002421095D490008430543E07E01280ED103
:10110000A07E002803D101200004054307E0A06B66
:1011100020210843A063E06B01210843E063FF2125
:10112000C231E069884203D0216AE069084305437F
:101130002068C06828432168C86001210907E06A67
:10114000884200E03EE014D0E06A012811D0E06A55
:1011500002280ED0E06A03280BD0E06A042808D0E9
:10116000E06A052805D0E06A062802D0E06A072870
:101170000DD120684069C008C0002168486120681E
:101180004069A18D4907490F0843216848612068DB
:10119000C06811490840A84208D10020E063A06B54
:1011A0000221884301210843A06310E0A06B0221C3
:1011B000884310210843A063E06B01210843E063EA
:1011C000012604E0A06B10210843A06301263046ED
:1011D00029E700001902FEFFE7FF3F837047000088
:1011E00010B586B00446142101A8FEF7D9FF29499D
:1011F000206888424CD100BF2748806949150843C0
:10120000254988610846806949150840009000BF5B
:1012100000BF00BF20484069090208431E494861D9
:1012200008464069012149040840009000BF00BF02
:101230003C200190032002900020039001A9092086
:10124000C00600F013FB15481549086000204860EF
:101250000021134881608021C1604900016189003B
:101260004161202181610021C16100F095F90028D0
:1012700001D0FFF736FC00BF09482063446200BF7D
:10128000002211460C2000F08DFF0C2000F07CFFA6
:1012900006B010BD002401400010024008000240CA
:1012A0002C010020F8B504460D461646002720689C
:1012B0008068042108408008002848D100BF3420FD
:1012C000005D012801D10220F8BD01213420015523
:1012D00000BF607E012803D02046FFF76BFB074666
:1012E000002F35D1A06B1B490840FF210131084375
:1012F000A0630020E06300BF00213420015500BF3F
:101300001548216B88621548216BC8621448216B0F
:1013100008631C2021680860206840681021084389
:10132000216848602068C068012108432168C860BE
:1013300022681146403133462A46206B00F05AF9A4
:1013400020688068042108432168886000E0022743
:101350003846B9E7FEF1FFFF59080008FD0800080C
:10136000DF08000870B50446002500BF3420005D8A
:10137000012801D1022070BD01213420015500BF98
:101380002046FFF733FA0546002D2DD12068C068AE
:10139000400840002168C860206B20304078022857
:1013A00009D1206B00F027F80546002D03D0A06B73
:1013B00040210843A06320684068102188432168C9
:1013C0004860002D04D12046FFF79FFA054602E051
:1013D0002046FFF79AFA002D06D1A06BFF210131BC
:1013E000884301210843A06300BF00213420015538
:1013F00000BF2846BFE701462120405C022808D0F4
:101400000420886300BF00222020425400BF012036
:101410007047086800680E2290430A6810600868E8
:101420000068400840000A68106001200A6C904083
:10143000CA6B506001222120425400BF00222020AC
:10144000425400BF0020E3E770B504460025212088
:10145000005D022803D00420A06301251EE020685F
:1014600000680E21884321680860206800684008F1
:101470004000216808600120216C8840E16B4860D1
:1014800001212120015500BF00212020015500BF6E
:10149000606B002802D02046616B8847284670BDEB
:1014A00001462120405C704770B50446E06B05683A
:1014B000206806680420216C8840284000281BD042
:1014C00004203040002817D0206800682021084000
:1014D000002805D12068006804218843216808603D
:1014E0000420216C8840E16B4860E06A002852D0FB
:1014F0002046E16A88474EE00220216C884028405F
:10150000002823D00220304000281FD02068006827
:1015100020210840002808D1206800680A2188435B
:10152000216808600121212001550220216C88409A
:10153000E16B486000BF00212020015500BFA06A78
:10154000002828D02046A16A884724E00820216C82
:101550008840284000281ED00820304000281AD09B
:10156000206800680E218843216808600120216CF2
:101570008840E16B48600120A063012121200155D2
:1015800000BF00212020015500BF206B002802D0A1
:101590002046216B884770BD70B504460025002C9D
:1015A00001D1012070BD022121200155206805686C
:1015B0000F480540A16860680843E1680843216955
:1015C000084361690843A1690843E1690843054389
:1015D000206805602046FFF75FFA0020A063012124
:1015E000212001550021202001550020DAE70000CC
:1015F0000FC0FFFFF8B504460D4616461F460020F3
:10160000009000BF2020005D012801D10220F8BD1C
:1016100001212020015500BF2120005D01282DD18E
:101620000221212001550020A063206800684008A5
:101630004000216808603B46324629462046FFF7B5
:101640003BFAE06A002806D0206800680E210843B3
:10165000216808600BE0206800680A2108432168BF
:1016600008602068006804218843216808602068B9
:101670000068012108432168086006E000BF0021DE
:101680002020015500BF022000900098BFE7000015
:1016900070B5044600F0E4F906462546681C0028AB
:1016A00002D0054800782D1800BF00F0D9F9801B42
:1016B000A842FAD370BD000030000020F8B50446FF
:1016C0000E460127002500BF2448007E012801D1D5
:1016D0000220F8BD01202149087600BF20680128BA
:1016E00011D11F48FFF75EFA002830D1FFF7FCF94F
:1016F0001B48FFF757FA07461A4800690421884338
:101700001849086123E01648FFF74CFA00281ED15B
:10171000401E3060656813E02846FFF7F9F910486D
:10172000FFF740FA07460F480069022188430D4938
:101730000861002F01D0356008E0012080022D18DB
:10174000A068800261684018A842E5D800BF00BFC9
:1017500000200249087600BF3846BAE7D0020020D0
:1017600050C3000000200240034800698021084364
:10177000014908610020704700200240F0B51FB405
:1017800086B0074615461E4601200390002400201F
:10179000029000BF2548007E012802D102200BB034
:1017A000F0BD01202149087600BF2148FFF7FAF972
:1017B00003900398002831D1012F02D1012002901B
:1017C00006E0022F02D10220029001E004200290E4
:1017D00000241FE022012846314604960595FEF7B5
:1017E000C7FC80B261000190079808180090019929
:1017F000FFF7A4F90E48FFF7D5F903900D480069EB
:10180000400840000B4908610398002800D004E01C
:10181000601CC4B202988442DCDB00BF00BF002021
:101820000249087600BF0398B9E70000D002002003
:1018300050C30000002002400020094909698022AD
:10184000114000290BD00749054A516006495160F3
:101850001146096980221140002900D001207047FB
:101860000020024023016745AB89EFCD78B50346E0
:101870000022DDE0012696400C683440002C7DD02B
:101880004D68012D08D04D68022D05D04D68112DF1
:1018900002D04D68122D18D1986856000325B54026
:1018A0000646AE4330465600CD68B54028439860A2
:1018B0005868012595400646AE43304610264D68CF
:1018C00035402D09954028435860D86856000325B7
:1018D000B5400646AE43304656008D68B5402843B5
:1018E000D8604D68022D02D04D68122D15D1D50853
:1018F000AE001D462035A8595507EE0E0F25B54000
:101900000646AE4330465607F60E0D69B5402843ED
:10191000D508AD001E4620367051186856000325C4
:10192000B5400646AE4330460D79AD07AD0F5600C3
:10193000B54028431860012636074D683540B5424A
:1019400075D100BF3D4DAD69012635433B4EB561B4
:101950003546AD69ED07ED0F009500BF00BF384D6E
:101960009608B600A85995072E0F0F25B5400646D4
:10197000AE4330460925ED06AB4200E057E001D109
:1019800000250FE02F4DAB4201D101250AE02E4D7D
:10199000AB4201D1022505E02C4DAB4201D103251C
:1019A00000E005259607360FB5402843244D9608DC
:1019B000B600A851264D28680546A54328460126AD
:1019C00036044D683540B54202D1054625432846C8
:1019D0001F4D286068680546A54328460126760401
:1019E0004D683540B54202D1054625432846184D7D
:1019F0006860A8680546A5432846012636054D6857
:101A00003540B54202D1054625432846104DA86011
:101A1000E8680546A5432846012676054D68354009
:101A2000B54202D1054625432846094DE860521CBF
:101A30000D68D540002D00D01CE778BD0010024095
:101A4000080001400004004800080048000C00485D
:101A500000040140002A01D0816100E081627047EA
:101A6000014800687047000028000020024641201D
:101A7000805C20282FD100BF4020805C012801D14C
:101A80000220704701234020835400BF24234120BB
:101A9000835410680068400840001368186010689C
:101AA000006801231B0398431368186010680068DE
:101AB000084313681860106800680123184313680E
:101AC000186020234120835400BF0023402083540A
:101AD00000BF0020D5E70220D3E710B502460B4631
:101AE0004120805C20282ED100BF4020805C01284E
:101AF00001D1022010BD01244020845400BF2424C1
:101B00004120845410680068400840001468206038
:101B1000106801680F2424020846A04301461802F9
:101B200001431068016010680068012420431468B4
:101B3000206020244120845400BF0024402084548D
:101B400000BF0020D6E70220D4E770477047F8B501
:101B500004462068856920680668FF200130284017
:101B6000000A00280BD080203040C009002806D091
:101B7000606C01210843606408022168C86101208B
:101B800080022840800A00280BD080203040C00905
:101B9000002806D0606C082108436064C8012168F1
:101BA000C861012040022840400A00280BD0802054
:101BB0003040C009002806D0606C022108436064F0
:101BC00008022168C861676C0B203840002803D0E8
:101BD0003946204601F0AAFEF8BD70B504462068DB
:101BE000856920680668606B002804D03246294663
:101BF0002046636B984770BD7047000010B50446DF
:101C0000002C01D1012010BD4120005D002805D12C
:101C1000002140200155204600F004FA24214120F3
:101C200001552068006840084000216808600F21C5
:101C3000090660688843216808612068806801217E
:101C4000C903884321688860E068012806D1012122
:101C5000C903A06808432168886005E02121890242
:101C6000A068084321688860E068022802D18002E9
:101C7000216848602068406814490843216848602A
:101C80002068C0680121C90388432168C860616970
:101C900020690843A169090208432168C860216AD4
:101CA000E069084321680860206800680121084352
:101CB0002168086000206064202141200155002037
:101CC000206300214220015500209CE70080000293
:101CD00070470000FFB583B004460C9F0E9E412064
:101CE000005D20287ED1002F02D00D98002805D15C
:101CF000012040026064012007B0F0BD00BF402019
:101D0000005D012801D10220F6E7012140200155A4
:101D100000BFFFF7A5FE054619230122D103204687
:101D2000009502F0B6F9002801D00120E4E7222155
:101D30004120015540214220015500206064676226
:101D40000D9860850020606300960195204604A9E7
:101D50000EC902F025F8002806D000BF002140205F
:101D6000015500BF0120C7E7608DFF280CD9FF2077
:101D7000208541480090208DC2B201231B062046D9
:101D8000049902F04BF90BE0608D20853A480090F1
:101D9000208DC2B201235B062046049902F03EF971
:101DA00000BF3346002204212046009502F071F95D
:101DB000002801D001209FE72068406A616A08700E
:101DC000606A401C6062208D401E2085608D401E30
:101DD0006085608D00282BD0208D002828D13346C7
:101DE000002200E045E080212046009502F051F9F4
:101DF000002801D001207FE7608DFF280CD9FF204B
:101E0000208500200090208DC2B201231B062046B1
:101E1000049902F003F90BE0608D2085002000900A
:101E2000208DC2B201235B062046049902F0F6F829
:101E3000608D0028B5D12A463146204602F055F97A
:101E4000002801D0012057E720202168C8612068C0
:101E500040680A4908402168486020214120015516
:101E600000214220015500BF4020015500BF002045
:101E700042E7022040E700000024008000E800FE66
:101E8000FFB583B004460C9F0E9E4120005D2028C4
:101E90007ED1002F02D00D98002805D101204002EC
:101EA0006064012007B0F0BD00BF4020005D012844
:101EB00001D10220F6E701214020015500BFFFF7C4
:101EC000CFFD054619230122D1032046009502F0DB
:101ED000E0F8002801D00120E4E72121412001554C
:101EE0004021422001550020606467620D986085A2
:101EF0000020606300960195204604A90EC901F0F8
:101F00008FFF002806D000BF00214020015500BFF0
:101F10000120C7E7608DFF280CD9FF202085002015
:101F20000090208DC2B201231B062046049902F0C6
:101F300075F80BE0608D208500200090208DC2B2E6
:101F400001235B062046049902F068F800BF2A4688
:101F50003146204602F0F6F8002801D00120A1E722
:101F6000606A007821688862606A401C6062608DE7
:101F7000401E6085208D401E2085608D00282BD05E
:101F8000208D002828D1334600228021204600E001
:101F900043E0009502F07DF8002801D0012081E7A0
:101FA000608DFF280CD9FF20208500200090208D17
:101FB000C2B201231B062046049902F02FF80BE061
:101FC000608D208500200090208DC2B201235B0629
:101FD0002046049902F022F8608D0028B7D12A46E5
:101FE0003146204602F081F8002801D0012059E74F
:101FF00020202168C861206840680949084021689C
:10200000486020214120015500214220015500BF98
:102010004020015500BF002044E7022042E70000B5
:1020200000E800FE10B586B00446142101A8FEF7B2
:10203000B7F81E492068884236D100BF1C48406965
:102040000121890408431A49486108464069012171
:1020500089040840009000BF00BF03208002019067
:10206000122002900120039003200490012005908B
:1020700001A91048FFF7FAFB00BF0D48C069012114
:10208000890508430A49C8610846C06901218905D4
:102090000840009000BF00BF00221146182000F049
:1020A00081F8182000F070F806B010BD005800400C
:1020B0000010024000040048704770470348006861
:1020C000034909784018014908607047280000203A
:1020D0003000002010B5064800681021084304496C
:1020E0000860002000F006F800F02EF8002010BD77
:1020F0000020024070B50446104801787D20C000E1
:10210000FDF7F0FF064631460D480068FDF7EAFF8F
:10211000054600F0F5FC002801D0012070BD042C1C
:1021200007D200222146501E00F03CF8054804600A
:1021300001E00120F2E70020F0E70000300000207D
:10214000340000202C00002008B500BF0D48806935
:10215000012108430B49886108468069C007C00F08
:10216000009000BF00BF00BF0846C06909040843D3
:102170000449C8610846C06909040840009000BFCE
:1021800000BF08BD001002400146002905DBCB0658
:10219000DB0E01229A40024B1A6000BF704700001C
:1021A00000E100E070B504460D461646294620467B
:1021B00002F0E4FD70BD0000F8B5044600260025DD
:1021C000012109042068084088427AD100274B4841
:1021D000C0690903084000280DD100BF4748C06905
:1021E00008434649C8610846C06909040840009090
:1021F00000BF00BF012742480068FF2101310840AD
:10220000002816D13E48006808433D490860FFF7A2
:1022100027FC064606E0FFF723FC801B642801D953
:102220000320F8BD36480068FF210131084000282E
:10223000F1D03248006A0321090208400546002D0A
:102240002DD060680840A84229D02C48006A8843F5
:1022500005462A48006A0121090408432749086203
:102260000846006A01210904884324490862084697
:102270000562E807C00F002811D0FFF7F1FB064602
:1022800007E0FFF7EDFB801B1E49884201D90320C0
:10229000C7E71A48006A022108400028F1D0174811
:1022A000006A0321090288436168084313490862F0
:1022B000012F05D10846C069090488430F49C86148
:1022C00000BF2078C007C00F002807D00B48006B64
:1022D00080088000A168084308490863202120681D
:1022E0000840202807D10548006B10218843E16889
:1022F000084302490863002093E7000000100240F1
:10230000007000408813000070B504460D46002C94
:1023100001D1012070BD52480068C007C00FA8421B
:102320000ED24F4800684008400028434C490860DE
:1023300008460068C007C00FA84201D00120E9E7A5
:10234000022120680840022814D104212068084096
:10235000042807D1434840680721090288434018F0
:10236000404948603F484068F0218843A1680843DD
:102370003C4948602078C007C00F00283BD0606807
:10238000012808D137480068012149040840002885
:1023900015D10120BEE76068022808D131480068E5
:1023A000012149060840002809D10120B2E72D4843
:1023B000006802210840002801D10120AAE729482D
:1023C0004068800880006168084326494860FFF73C
:1023D00047FB064607E0FFF743FB801B2249884284
:1023E00001D9032096E71F4840680C210840616826
:1023F00089008842EFD11A480068C007C00FA84280
:102400000ED9174800684008400028431449086066
:1024100008460068C007C00FA84201D0012079E734
:10242000042120680840042808D10E48406807218C
:1024300009028843E16808430A49486000F032F81D
:1024400008494968F02211400909084A515CC8400E
:10245000074908600020FFF74DFE00205AE7000002
:102460000020024000100240881300005C56000863
:10247000340000200148006870470000340000204C
:1024800000B5FFF7F7FF054949680722120211401E
:10249000090A034A515CC84000BD00000010024018
:1024A0006C560008F0B589B027A001460EC9C06877
:1024B00005AC0EC4089028A001460EC9C06801AC46
:1024C0000EC4049000240025002700260020009060
:1024D000254844680C20204000282DD0042802D034
:1024E000082828D102E02148009028E00F2080042D
:1024F0002040800C05A90E5C1B48C06A0007000F35
:1025000001A90D5C0120000420400121090488423A
:102510000AD12A46002315481946FDF7F9FD314630
:1025200002F013FC074604E01148314602F00DFCAE
:102530000746009703E000BF0C48009000BF00BFB3
:10254000009809B0F0BD0000020304050607080961
:102550000A0B0C0D0E0F10100102030405060708EC
:10256000090A0B0C0D0E0F100010024000127A0029
:1025700000093D00FEB50446002C01D10120FEBD3E
:102580002078C007C00F002871D0FC4840680C219B
:10259000084004280BD0F94840680840082812D1A8
:1025A000F648406801210904084088420BD1F348ED
:1025B000006801214904084000286BD060680028A9
:1025C00068D10120DBE700BF6068012807D1EB4834
:1025D0000068012109040843E849086031E06068A7
:1025E00000280ED1E5480068012109048843E34929
:1025F000086008460068012189048843DF490860B3
:102600001FE0606805280ED1DC48006801218904BC
:102610000843DA49086008460068012109040843B4
:10262000D64908600DE0D5480068012109048843B7
:10263000D249086008460068012189048843CF49CF
:10264000086000BF6068002812D0FFF709FA05464D
:1026500006E0FFF705FA401B642801D903208EE746
:10266000C64800680121490408400028F1D011E063
:10267000FFF7F6F9054606E0FFF7F2F9401B64287C
:1026800001D903207BE7BD480068012149040840C7
:102690000028F1D1022120680840022861D1B74802
:1026A00040680C21084000280BD0B448406808401E
:1026B00008281BD1B14840680121090408400028BE
:1026C00014D1AE48006802210840002804D0E06818
:1026D000012801D0012052E7A8480068F82188436A
:1026E0002169C9000843A54908603AE0E06800286C
:1026F00020D0A248006801210843A0490860FFF7E4
:10270000AFF9054606E0FFF7ABF9401B022801D9F7
:10271000032034E799480068022108400028F2D0DD
:1027200096480068F82188432169C9000843934905
:10273000086016E091480068400840008F49086032
:10274000FFF78EF9054606E0FFF78AF9401B0228DD
:1027500001D9032013E789480068022108400028B6
:10276000F2D1082120680840082831D1E06900280A
:1027700017D08248406A0121084380494862FFF728
:102780006FF9054606E0FFF76BF9401B022801D9F7
:102790000320F4E67948406A022108400028F2D07C
:1027A00016E07648406A4008400074494862FFF7E6
:1027B00057F9054606E0FFF753F9401B022801D9F7
:1027C0000320DCE66D48406A022108400028F2D16F
:1027D000042120680840042873D100200190674834
:1027E000C0698906084000280ED100BF6348C0694F
:1027F00008436249C8610846C0690904084000905E
:1028000000BF00BF012001905D480068FF21013139
:102810000840002816D15A48006808435849086003
:10282000FFF71EF9054606E0FFF71AF9401B64287A
:1028300001D90320A3E652480068FF210131084076
:102840000028F1D000BFA068012806D14B48006ADB
:1028500001210843494908622BE0A06800280CD1F7
:102860004648006A40084000444908620846006A39
:1028700004218843414908621BE0A06805280CD167
:102880003E48006A042108433C4908620846006A41
:1028900001210843394908620BE03848006A4008C2
:1028A0004000364908620846006A042188433349DB
:1028B000086200BFA068002813D0FFF7D1F80546D2
:1028C00008E02BE0FFF7CCF8401B2E49884201D9E5
:1028D000032054E62948006A022108400028F1D06C
:1028E00011E0FFF7BDF8054607E0FFF7B9F8401B18
:1028F0002449884201D9032041E62048006A022188
:1029000008400028F1D10198012806D11B48C06970
:102910000121090788431949C86100BF10212068B7
:102920000840102860D1606901282DD11348406B00
:1029300004210843114948630846406B01210843BC
:102940000E494863FFF78CF8054606E0FFF788F864
:10295000401B022801D9032011E60848406B0221E0
:1029600008400028F2D00548406BF8218843A1694F
:10297000C90008430149486336E0000000100240E6
:1029800000700040881300006069401D00280FD1CE
:102990005A48406B04218843584948630846406BB5
:1029A000F8218843A169C9000843544948631BE0E2
:1029B0005248406B04210843504948630846406B25
:1029C000400840004863FFF74BF8054606E0FFF774
:1029D00047F8401B022801D90320D0E54748406B47
:1029E000022108400028F2D1206A00284FD0434835
:1029F00040680C210840082864D0206A022847D18A
:102A00003E4800680121090688433C490860FFF7F9
:102A100027F8054606E0FFF723F8401B022801D9F6
:102A20000320ACE53548006801214906084000282C
:102A3000F1D100BF3148C06A00090001E16A0843D2
:102A40002E49C862616AA06A08432C4949683D2240
:102A50001204914308432949486000BF08460068B2
:102A600001210906084325490860FEF7F9FF0546DC
:102A700006E0FEF7F5FF401B022801D903207EE5A2
:102A80001E4800680121490608400028F1D033E0C3
:102A90001A48006801210906884318490860FEF7B2
:102AA000DFFF054606E0FEF7DBFF401B022801D9E9
:102AB000032064E511480068012149060840002808
:102AC000F1D119E0206A012800D158E50B48466889
:102AD000C76A012000043040616A88420AD1390780
:102AE000090FE06A814205D10F2080043040A16ABD
:102AF000884201D0012042E5002040E5001002405C
:102B000070B504462546681E0949884201D901204E
:102B10000CE0681E074948610321081F02F02EF9E6
:102B200000200449886107200861002070BD000072
:102B3000FFFFFF0000E000E07047704730B502463D
:102B40000B4600BF3C20805C012801D1022030BD33
:102B500001253C20855400BF02253D208554106886
:102B600044681068816870252046A84304461868A8
:102B70000443106844600F4D1068A84207D00E4D02
:102B80001068A84203D00D4D1068A84207D18025D7
:102B90000846A84301465868014310688160012532
:102BA0003D20855400BF00253C20855400BF0020F7
:102BB000CDE70000002C014000040040004001402F
:102BC00010B50446002C01D1012010BD3D20005D50
:102BD000002805D100213C200155204600F022F8B4
:102BE00002213D200155211D206801F0F7FC012143
:102BF0004620015500BF3E2001553F200155402091
:102C000001554120015500BF00BF4220015543201E
:102C10000155442001554520015500BF3D20015577
:102C20000020D2E738B504461A492068884216D1F8
:102C300000BF1948C069022108431749C861084606
:102C4000C06902210840009000BF00BF0022114669
:102C50001020FFF7A7FA1020FFF796FA19E00F49A6
:102C60002068884215D100BF0B48C0691021084375
:102C70000949C8610846C06910210840009000BF9A
:102C800000BF002211461120FFF78CFA1120FFF738
:102C90007BFA38BD000400400010024000100040E4
:102CA00001463D20405C012801D0012070470223ED
:102CB0003D2043540868C068012318430B68D8605E
:102CC000104B0868984207D00F4B0868984203D011
:102CD0000E4B086898420CD1086880684207520F72
:102CE000062A0CD008680068012318430B68186096
:102CF00005E008680068012318430B68186000208D
:102D0000D4E70000002C01400004004000400140D6
:102D1000014600BF0868006A0A4A104000280BD12B
:102D20000868006A92101040002805D10868006801
:102D3000400840000A68106000BF01223D20425454
:102D40000020704711110000F8B504460D4600BF81
:102D50003C20005D012801D10220F8BD01213C206A
:102D6000015500BF02213D2001552068866877216A
:102D7000304688430646FF2109023046884306460E
:102D8000206886602868502834D00CDC202851D078
:102D900004DC00284CD0102852D14AE030284AD018
:102DA00040284DD13AE060282ED0702807D001216C
:102DB0000903401A02D0401A42D10DE041E0EB680D
:102DC0006A68A968206801F059FC20688668772045
:102DD00006432068866034E0EB686A68A96820686A
:102DE00001F04CFC206880680121890308432168B8
:102DF000886026E0EA686968206801F059FC502183
:102E0000206801F049FC1CE0EA686968206801F06C
:102E100068FC6021206801F03FFC12E0EA68696804
:102E2000206801F045FC4021206801F035FC08E0F5
:102E300000BF00BF00BF2968206801F02DFC00E042
:102E400000BF00BF01213D20015500BF00213C20F3
:102E5000015500BF002080E7704710B50446206888
:102E6000006902210840400800281CD02068C06882
:102E700008404008002816D0481F2168086101203A
:102E80002077206880698007800F002803D02046C3
:102E9000FFF7E2FF05E0204600F0C3F8204600F00F
:102EA000C1F80020207720680069042108408008CC
:102EB00000281DD02068C06808408008002817D06E
:102EC000C8432168086102202077206880690321B7
:102ED00009020840002803D02046FFF7BDFF05E0A7
:102EE000204600F09EF8204600F09CF80020207755
:102EF0002068006908210840C00800281CD020680C
:102F0000C0680840C008002816D0C843216808617E
:102F1000042020772068C0698007800F002803D034
:102F20002046FFF799FF05E0204600F07AF820469A
:102F300000F078F800202077206800691021084010
:102F4000000900281DD02068C0680840000900283A
:102F500017D0C84321680861082020772068C0691D
:102F6000032109020840002803D02046FFF774FF20
:102F700005E0204600F055F8204600F053F8002008
:102F8000207720680069C007C00F012148404840F1
:102F900000280CD02068C0680840484048400028FD
:102FA00005D0C81E21680861204600F03DF8206861
:102FB000006980210840C00900280BD02068C06843
:102FC0000840C009002805D0C84321680861204690
:102FD000FFF7B2FD20680069402108408009002801
:102FE0000BD02068C06808408009002805D0C8437D
:102FF00021680861204600F093F8206800692021CC
:103000000840400900280BD02068C06808404009EB
:10301000002805D0C843216808612046FFF78DFDD0
:1030200010BD70477047000010B504463248844216
:1030300043D1324800784007C00F002819D13048EA
:10304000007800280AD1C7202E49887100212D4818
:1030500001F0F5F801202A4908704BE0FF202949CA
:1030600088710021274801F0EAF8002024490870FF
:1030700040E025480088401C234908800846008815
:10308000142837D11D480078042188431B49087053
:1030900000201D490880FF201A4988710021194825
:1030A00001F0CDF8FF20194988710021174801F07F
:1030B000C6F80020124908701CE01548844219D156
:1030C0001448C06F202804D101221349114800F090
:1030D00027FA01210B4801F08BF80A48C0797E28B5
:1030E00005D10E480088401C0C49088002E00020F1
:1030F0000A49088010BD0000BC0100201C0000200F
:1031000020000020040000201E0000200C000020F1
:10311000040200204C0200200000002024000020B7
:103120007047704770470000FEB504462068C569C7
:103130002068066820688768B24828400290029894
:1031400000280ED12020284000280AD0202030401E
:10315000002806D0606E002802D02046616E8847A5
:10316000FEBD029800287DD0F807C00F002803D1CB
:10317000A54830400028F6D0E807C00F00280DD041
:10318000FF2001303040002808D00120216808626B
:103190008020005901210843802108510220284045
:1031A00000280CD0F807C00F002808D002202168A2
:1031B000086280200059042108438021085104201E
:1031C000284000280CD0F807C00F002808D00420A1
:1031D000216808628020005902210843802108519B
:1031E00008202840002810D020203040002803D19B
:1031F000F807C00F002808D0082021680862802046
:10320000005908210843802108510120C0022840AC
:1032100000280ED0012080063040002809D001206F
:10322000C0022168086280200059202108438021C3
:10323000085180200059002848D02020284000282C
:1032400009D020203040002805D0606E002802D030
:103250002046616E88478020005901902068806870
:10326000402100E033E00840402804D028210198A4
:103270000840002824D0204601F00AFB206880681E
:1032800040210840402817D1206880688843216881
:103290008860206F00280BD05C48216F4863206F46
:1032A000FEF7D2F8002811D0206F416B88470DE05F
:1032B0002046FFF737FF09E02046FFF733FF05E020
:1032C0002046FFF72FFF00218020015148E7206EA4
:1032D00001287AD110202840002876D010203040D4
:1032E000002872D010202168086220688068402180
:1032F000084040283DD1206F0068406880B20090AF
:103300000098002834D05820015B009881422FDDBE
:103310005A2100980853206F806920281FD0206808
:103320000068FF21013188432168086020688068B7
:1033300040084000216888602068806840218843F8
:10334000216888602020E0670020206620680068EF
:103350001021884321680860206FFEF74CF8582040
:10336000025B5A20005B101A81B22046FFF7D9FE9B
:10337000F6E65820015B5A20005B081A80B20090E4
:103380005A20005B00281ED0009800281BD020681F
:103390000068FF2121318843216808602068806827
:1033A00040084000216888602020E06700202066F7
:1033B0006066206800681021884321680860204604
:1033C0000099FFF7AEFECBE6FFE7802028400028FB
:1033D0000AD080203040002806D0A06E002802D0FD
:1033E0002046A16E8847BBE640202840002807D031
:1033F00040203040002803D0204601F065FAAFE6B7
:1034000000BFADE60F080000200100047948000865
:1034100010B50446002C01D1012010BDA069002880
:1034200000D000E000BFA06F002805D1002174206B
:103430000155204600F02CF82420A0672068006881
:103440004008400021680860204601F0D9FA0128B0
:1034500000D1E2E7606A002802D0204601F05AF964
:10346000206840680121C9028843216848602068BB
:1034700080680821884321688860206800680121ED
:10348000084321680860204601F0BCF9C5E7000048
:1034900010B586B00446142101A8FCF781FE1E4930
:1034A0002068884236D100BF1C4880690121890309
:1034B00008431A4988610846806901218903084048
:1034C000009000BF00BF00BF14484069C900084316
:1034D00012494861084640690121490408400090AA
:1034E00000BF00BF03204002019002200290002094
:1034F0000390032004900120059001A90920C00633
:10350000FEF7B4F9002211461B20FEF74BFE1B20EC
:10351000FEF73AFE06B010BD003801400010024030
:1035200070B504460D461646E06F202832D1002DB6
:1035300001D0002E01D1012070BD01210903A06836
:10354000884208D12069002805D1E807C00F00286B
:1035500001D00120F0E700BF7420005D012801D1F7
:103560000220E9E701217420015500BF00202066F8
:1035700020684068C9050840002805D02068006818
:10358000C90008432168086032462946204601F0F8
:1035900005FBD1E70220CFE710B5044627480078A5
:1035A0002749284A12788854084626490978405CF9
:1035B0000A2832D12348007800282ED021480078EC
:1035C000401E1F49085C0D2827D11F48007840077E
:1035D000C00F002810D1FF201C49887100211B4812
:1035E00000F02DFEFF201A4988710021184800F0D4
:1035F00026FE002017490870134800784008400054
:10360000401C114908700846007804218843001DB9
:103610000D4908700020104908800A480078401CB5
:103620000849087008460078322801DD002008703B
:10363000012202490948FFF773FF10BD0000002076
:1036400038000020010000201C00002004000020A1
:103650000C000020200000201E0000204C02002052
:10366000FFB583B004460D461746A06F202876D1DB
:10367000002D01D0002F02D1012007B0F0BD0121A3
:103680000903A068884208D12069002805D1E8070D
:10369000C00F002801D00120EFE700BF7420005DBB
:1036A000012801D10220E8E701217420015500BF63
:1036B0000021802001512120A067FEF7D1F901905F
:1036C000502007535220075301210903A068884264
:1036D00005D12069002802D10026029502E02E467D
:1036E0000020029000BF00217420015500BF21E09E
:1036F00006980090002280212046019B01F0A6FA46
:10370000002801D00320B8E7002E09D102980088D4
:10371000C005C00D216808850298801C029003E056
:10372000307821680885761C5220005B401E81B2EB
:10373000522001535220005B0028D9D106980090F6
:10374000002240212046019B01F080FA002802D08F
:10375000032092E703E02020A06700208DE70220ED
:103760008BE7704700BFFEE710B508480068806926
:10377000072109020840002803D00448FEF7E7F9B2
:1037800002E00248FEF729FA10BD00007001002097
:1037900070B505466C6AA06B002802D00020A16BB2
:1037A0004863E06B002802D00020E16B48632046AC
:1037B00000F050FC70BD10B502460020CB07DB0FB7
:1037C000002B09D04223184341239B5C282423402B
:1037D000282B01D0B023184302230B40022B09D120
:1037E0004423184341239B5C28242340282B01D0E9
:1037F000B02318430123DB030B400124E403A3425D
:1038000001D1B8231843102901D19023184320294E
:1038100001D120231843402901D1402318431368C4
:103820001B6883431468236010BD01688969022204
:1038300011404908002902D0002102689162016804
:103840008969C907C90F012251405140002904D19B
:10385000016889691143026891617047F8B50446AF
:103860004120005D28210840282856D12068806921
:10387000012109040840070C206880697F21490460
:103880000840050C206880688605B60D2068C06871
:10389000FE2108400090E06802282ED10620284032
:1038A000F11106221140884216D13546A06C401C09
:1038B000A064A06C022838D10020A06408202168F0
:1038C000C86100BF00214020015500BF2A4639468B
:1038D0002046FEF73BF928E0009D0121C903204660
:1038E000FFF769FF00BF00214020015500BF2A46B5
:1038F00039462046FEF72AF917E00121C903204680
:10390000FFF759FF00BF00214020015500BF2A46A4
:1039100039462046FEF71AF907E008202168C861F9
:1039200000BF00214020015500BFF8BDF8B5044696
:103930000F464120065D0021422001554148E062CA
:1039400000206085606C38436064282E03D0292EE7
:1039500001D02A2E09D103212046FFF72CFF282170
:1039600041200155384860630CE038492046FFF794
:1039700022FF4120005D602802D020214120015516
:1039800000206063256BA06B002829D0112D01D089
:10399000212D25D120680068012189030840884233
:1039A00004D120680068884321680860A06BFDF797
:1039B00077FD012810D02648A16B486300BF002185
:1039C0004020015500BFA06BFDF73EFD002837D019
:1039D000A06B416B884733E0204600F03BFB2FE0B3
:1039E000E06B002829D0122D01D0222D25D120688E
:1039F00000680121C9030840884204D1206800689A
:103A0000884321680860E06BFDF74AFD012810D06B
:103A10000F48E16B486300BF00214020015500BF03
:103A2000E06BFDF711FD00280AD0E06B416B884781
:103A300006E0204600F00EFB02E0204600F00AFB04
:103A4000F8BD00000000FFFFA13E00080380000059
:103A50009137000870B504460D461A48E062002010
:103A600020632021412001550021422001550020E2
:103A70006063042028408008002813D02068406A32
:103A8000616A0870606A401C6062208D002809D05D
:103A9000208D401E2085608D401E6085606C042155
:103AA0000843606408492046FFF785FE102021681E
:103AB000C86100BF00214020015500BF2046FEF72D
:103AC00007F970BD0000FFFF03800000F3B581B06F
:103AD000044620680768029E4120055D2020216879
:103AE000C861212D01D0292D06D15B492046FFF761
:103AF00062FE212020630AE0222D01D02A2D06D16A
:103B00005549491C2046FFF756FE222020632068B5
:103B100040680121C9030843216848602068406863
:103B20004E490840216848602046FFF77EFE01208C
:103B300080033840800B00280ED0206800680121E7
:103B40008903884321680860A06B002818D0A06B07
:103B500000684068608513E00120C0033840C00B56
:103B600000280DD0206800680121C903884321681E
:103B70000860E06B002803D0E06B00684068608557
:103B8000042030408008002813D0042130468843A8
:103B900006462068406A616A0870606A401C60627C
:103BA000208D002805D0208D401E2085608D401E70
:103BB0006085608D002803D0606C04210843606438
:103BC00000214220015500206063606C00280CD069
:103BD000616C2046FFF7AAFE4120005D28283AD1FB
:103BE00031462046FFF736FF35E0E06A1C4988423F
:103BF00012D0204600F036F81948E062202141201A
:103C000001550020206300BF00214020015500BF66
:103C10002046FEF75DF81EE04120005D22280DD110
:103C20002021412001550020206300BF00214020B9
:103C3000015500BF2046FEF73FFA0CE0202141204D
:103C400001550020206300BF00214020015500BF26
:103C50002046FEF732FAFEBD0180000000E800FEBB
:103C60000000FFFF70B5044620680568002142206F
:103C70000155012080032840800B002807D02068D0
:103C80000068012189038843216808600CE0012055
:103C9000C0032840C00B002806D02068006801211E
:103CA000C9038843216808604120005D292811D19B
:103CB0002821412001552120206301212046FFF7C2
:103CC0007AFD00BF00214020015500BF2046FEF7CD
:103CD000F4F914E04120005D2A2810D12821412068
:103CE00001552220206302212046FFF764FD00BF1A
:103CF00000214020015500BF2046FEF7DDF970BDD0
:103D000070B504460D4616462068806910210840AB
:103D1000000900283FD018E0681C002815D0FDF7E6
:103D20009FFE801BA84201D8002D0ED1606C20217F
:103D3000084360644120015500214220015500BF25
:103D40004020015500BF012070BD206880692021FE
:103D5000084040090028DFD010202168C8612020D9
:103D60002168C8612046FFF760FD206840680B4964
:103D7000084021684860606C042108436064202189
:103D80004120015500214220015500BF402001552E
:103D900000BF0120D8E70020D6E7000000E800FEC1
:103DA000FFB581B0044615461E460A9F1B48F2B275
:103DB000002300902046029900F030F93946204651
:103DC0000B9A00F0BFF9002802D0012005B0F0BD29
:103DD000012E03D1E8B22168886211E0FF200002C1
:103DE0002840001221688862394620460B9A00F06C
:103DF000A9F9002801D00120E8E7E8B2216888622B
:103E00000B983B46002240210090204600F041F9EB
:103E1000002801D00120D9E70020D7E7002000804A
:103E2000FFB581B0044615461E460A9F1B48F2B2F4
:103E3000C30200902046029900F0F0F8394620466F
:103E40000B9A00F07FF9002802D0012005B0F0BDE8
:103E5000012E03D1E8B22168886211E0FF20000240
:103E60002840001221688862394620460B9A00F0EB
:103E700069F9002801D00120E8E7E8B221688862EA
:103E80000B983B46002280210090204600F001F96B
:103E9000002801D00120D9E70020D7E700200080CA
:103EA000F7B504461646E56A019F00BF4020005D55
:103EB000012801D10220FEBD01214020015500BF93
:103EC000202038404009002808D0202030404009F8
:103ED000002803D039462046FFF7F8FD102038406F
:103EE000000900283AD0102030400009002835D0C1
:103EF000608D002821D14120005D282808D10120B3
:103F00004006854204D139462046FFF7A3FD7CE0F8
:103F10004120005D29280CD13F48854209D010205E
:103F20002168C8612046FFF780FC2046FFF79AFE13
:103F30006BE010202168C86167E010202168C8612B
:103F4000606C042108436064002D02D0880585421E
:103F50005BD1616C2046FFF7E9FC56E00420384055
:103F6000800800281ED0042030408008002819D086
:103F7000608D00280CD02068406A616A0870606A11
:103F8000401C6062208D401E2085608D401E608533
:103F9000608D002839D12048854236D02046FFF771
:103FA00061FE32E008203840C008002809D008200F
:103FB0003040C008002804D039462046FFF74EFCA8
:103FC00023E002203840400800281ED00220304064
:103FD0004008002819D0608D00280DD0606A007854
:103FE00021688862606A401C6062608D401E608546
:103FF000208D401E208508E001200006854201D06A
:10400000002D02D12046FFF72DFE00BF00214020E9
:10401000015500BF00204EE70000FFFFF0B5046827
:104020006568059C640D0126B6023440084E26439F
:104030002C46B4438D05AD0D1604FF273F043E40CA
:1040400035431D43059E35432C4305686C60F0BD28
:10405000FF63FF0310B504464120005D60280DD1C9
:104060002021412001550020206300BF0021402075
:10407000015500BF2046FDF768FD09E000202063E0
:1040800000BF00214020015500BF2046FDF7B4FDD0
:1040900010BDF8B504460E4617461D4619E0681CCB
:1040A000002816D0FDF7DCFC0699401AA84201D87A
:1040B000002D0ED1606C2021084360644120015521
:1040C00000214220015500BF4020015500BF0120C2
:1040D000F8BD206880693040B04201D1012000E085
:1040E0000020B842DBD00020F2E770B504460D4650
:1040F00016461EE0324629462046FFF701FE0028FC
:1041000001D0012070BDFDF7ABFC801BA84201D897
:10411000002D0ED1606C20210843606441200155C0
:1041200000214220015500BF4020015500BF012061
:10413000E8E7206880692021084040090028D9D09C
:104140000020DFE770B504460D46164621E03246F2
:1041500029462046FFF7D4FD002801D0012070BD7C
:10416000681C002815D0FDF77BFC801BA84201D8F5
:10417000002D0ED1606C2021084360644120015560
:1041800000214220015500BF4020015500BF012001
:10419000E5E7206880690221084040080028D6D061
:1041A0000020DCE7016053041B0C83807047F8B5E6
:1041B00006460C4615460127009521466A463046BC
:1041C00000F02AF807463846F8BDFEB504460D460D
:1041D000164601270A200121009601910290A1882C
:1041E00001232A462068FDF775FD07463846FEBDC7
:1041F000F8B505460C4601261220204301466A46C2
:104200002846FFF7E2FF0646002E03D168460178F4
:10421000A81D01553046F8BDFEB504460D461646AC
:1042200001270A200121009601910290A188012313
:104230002A462068FDF724FE07463846FEBDF8B53D
:1042400005460C460126A81D005D00901220204363
:1042500001466A462846FFF7DFFF06463046F8BDAE
:104260000EB500200090019002902848284908606F
:1042700040054860002126488160C160012101613C
:1042800008214161002101764176012181760021DA
:10429000C176FF21C231C1610021016201212430B8
:1042A000017024388162FCF7B7FE002801D0FCF7CA
:1042B00018FC02200090C00201900720029069467D
:1042C0001348FCF7A3FC002801D0FCF70AFC0320EC
:1042D000009069460E48FCF799FC002801D0FCF7D5
:1042E00000FC0420009069460948FCF78FFC002878
:1042F00001D0FCF7F6FB0520009069460448FCF766
:1043000085FC002801D0FCF7ECFB0EBD0024014029
:10431000EC00002008B500BF0A48406901210843AD
:104320000849486108464069C007C00F009000BFB7
:1043300000BF002211460920FDF734FF0920FDF7D8
:1043400023FF08BD0010024000B587B0142102A869
:10435000FBF726FF00BF204840690121890508437B
:104360001D494861084640690121890508400190BE
:1043700000BF00BF00BF18484069491108431649F3
:10438000486108464069012149040840019000BF86
:1043900000BF00BF10484069490008430E4948610A
:1043A00008464069012189040840019000BF00BF10
:1043B000002210210948FDF74DFB1020029001203A
:1043C0000390022004900120059002A90348FDF704
:1043D0004DFA07B000BD0000001002400004004884
:1043E00010B513481349086013484860002111486C
:1043F00081600121C1600021016141618161C16170
:104400000162FDF7FBFB002801D0FCF76AFB0021ED
:104410000848FDF72BFB002801D0FCF762FB0021C8
:104420000448FDF75AFB002801D0FCF75AFB10BDE9
:104430000058004070010020372EE33000B587B0EF
:104440000020039004900590069001900290164879
:1044500016490860164848600021144881601449D4
:10446000C831C1600021016180218161FEF7A8FB94
:10447000002801D0FCF735FB01200003039003A9BD
:104480000A48FEF761FC002801D0FCF72AFB002057
:104490000190029001A90548FEF750FB002801D0C9
:1044A000FCF71FFB07B000BD00040040BC0100206A
:1044B000BF12000010B50948094908600948486062
:1044C0000021074881600849C16000218161FEF731
:1044D00077FB002801D0FCF704FB10BD0010004062
:1044E00004020020BF120000E703000010B50E48D0
:1044F0000E490860E1204002486000210B488160BD
:10450000C16001610C21416100218161C1610162D1
:104510000020064948620846FEF77AFF002801D0CD
:10452000FCF7DFFA10BD0000003801404C0200200B
:1045300000BFFEE77047704710B5FDF7BFFD10BD27
:1045400000B595B0302109A8FBF72AFE00200590A0
:10455000069007900890019002900390049001202B
:1045600009900A9002201190C1031291C104139185
:104570000021149109A8FDF7FDFF002801D0FCF7E8
:10458000B0FA0720059002200690002007900890BE
:10459000012105A8FDF7B8FE002801D0FCF7A1FA1B
:1045A000012001900020039001A8FDF705FE0028DE
:1045B00001D0FCF796FA15B000BD704710B502485F
:1045C000FEF74BFC10BD0000BC01002010B50248F6
:1045D000FEF743FC10BD00000402002010B5026885
:1045E000204B984202D0204B984205D170241346AC
:1045F000A3431A464B681A431A4B98420ED01A4BE3
:1046000098420BD0194B984208D0194B984205D0CC
:10461000184B984202D0184B984206D1032424022A
:104620001346A3431A46CB681A4380241346A34378
:104630004C6923431A4602608B68C3620B6883622D
:10464000084B984208D00A4B984205D0094B984233
:1046500002D0094B984201D10B69036301234361E6
:1046600010BD0000002C014000040040002000406C
:1046700000400140004401400048014070B50C4634
:104680008168FF2636020D46B54329461D021543B3
:1046900025432943816070BD10B50A4681687024A6
:1046A0000B46A3431946072313431943816010BDEA
:1046B00070B50B461446026A056A6D086D00056206
:1046C0008169F0260D46B5432946250129430A266E
:1046D0001546B5432A4615461D432A4681610262A6
:1046E00070BD70B50B461446056A1026B5430562C9
:1046F0008169026A0F2636030D46B5432946250314
:104700002943A0261546B5432A461D012A43816147
:10471000026270BD818CC907C90F002908D00168E9
:104720004968012252049143826A11430268516030
:104730000222416A1140022907D101684968D20367
:104740009143C26A1143026851600422416A1140D8
:10475000042907D10168496812049143026B11438F
:10476000026851600822416A1140082907D1016896
:10477000496812039143426B114302685160102251
:10478000416A1140102907D10168896812029143DA
:10479000826B1143026891602022416A11402029F6
:1047A00007D10168896812029143C26B1143026804
:1047B00091604022416A1140402915D10168496841
:1047C00092039143026C1143026851600122120569
:1047D000016C914208D10168496803225205914356
:1047E000426C1143026851608022416A1140802965
:1047F00007D10168496812039143826C1143026832
:104800005160704738B50446002180200151FDF702
:1048100027F90546206800680821084008280BD1C0
:1048200014482B46002289040090204600F00EFA1E
:10483000002801D0032038BD20680068042108400A
:1048400004280BD10B482B46002209050090204676
:1048500000F0FCF9002801D00320ECE72020A0673D
:10486000E0670020206600BF00217420015500BFD2
:104870000020E0E7FFFFFF0170B505466C6A0021EC
:104880005A200153522001532046FEF74BFC70BDC5
:1048900001680968FF2221329143026811600168B2
:1048A00089684908490002689160016E012905D1B3
:1048B0000168096810229143026811602021C167D4
:1048C000002101664166704710B504462068006803
:1048D00040218843216808602020A0670020A0664E
:1048E0002046FEF73EFF10BDF8B504465C20075B8E
:1048F000E06F222837D12068868C656D30463840BD
:104900002880606D801C60655A20005B401E81B26B
:104910005A200153005B00282BD120680068FF213A
:104920002131884321680860206880684008400081
:10493000216888602020E06700206066206E0128E2
:104940000BD1206800681021884321680860582036
:10495000015B2046FEF7E5FB02E02046FEF71CFE69
:104960000020206605E0206880690821084321684E
:104970008861F8BD70B504465C20065BE06F2228B4
:1049800037D12068858CF0B22840616D0870606D69
:10499000401C60655A20005B401E81B25A200153C2
:1049A000005B00282BD120680068FF21213188435B
:1049B000216808602068806840084000216888609D
:1049C0002020E06700206066206E01280BD120685F
:1049D000006810218843216808605820015B204648
:1049E000FEF79FFB02E02046FEF7D6FD0020206682
:1049F00005E020688069082108432168886170BD4E
:104A0000FEB50446002000902169A0680843616952
:104A10000843E1690843029020680068594908404A
:104A2000029908432168086020684068032109034F
:104A30008843E168084321684860A0690290206AC1
:104A4000029908430290206880680B21090288437C
:104A5000029908432168886000BF4B49206888425A
:104A600017D14A48006B8007800F002806D0012824
:104A700008D0022808D0032808D101E0002607E06A
:104A8000022605E0042603E0082601E0102600BF08
:104A900006E03F492068884201D1002600E0102648
:104AA00000BF0121C903E069884239D1002E06D038
:104AB000022E08D0042E08D0082E0DD109E0FDF7F3
:104AC000DFFC05460CE0334D0AE0FDF7EBFC054644
:104AD00006E00125ED0303E000250120009000BF62
:104AE00000BF002D49D06A0063685B08D018616878
:104AF000FBF7F8FA87B2102F0FD3274887420CD85C
:104B000025480F38384001903807400F0199084375
:104B1000019001982168C8602FE0012000902CE0EE
:104B2000002E06D0022E08D0042E08D0082E0DD15B
:104B300009E0FDF7A5FC05460CE0164D0AE0FDF77F
:104B4000B1FC054606E00125ED0303E00025012048
:104B5000009000BF00BF002D0FD061684A085019B7
:104B6000FBF7C0FA87B2102F05D30B48874202D853
:104B70002068C76001E00120009000206066A06608
:104B80000098FEBDF369FFFF0038014000100240AD
:104B90000044004000127A00FFFF000010B50346F9
:104BA00059655820C2525A20C2520020586600BF90
:104BB000012424039868A0420AD11869002803D16F
:104BC0001F4C5C20C45214E0FF245C20C45210E04F
:104BD000986800280AD11869002803D1FF245C20B6
:104BE000C45206E07F245C20C45202E000245C2012
:104BF000C45200BF00248020C4502220D867186807
:104C00008068012420431C68A06001242403986864
:104C1000A04205D11869002802D10A48586601E06F
:104C20000948586600BF00247420C45400BF1868A7
:104C30000068FF24213420431C682060002010BD40
:104C4000FF010000E948000875490008FFB581B080
:104C500004460D4617460A9E4CE0701C002849D0B9
:104C6000FCF7FEFE0499401AB04201D8002E17D17D
:104C700020680068FF21A13188432168086020680E
:104C8000806840084000216888602020A067E067B5
:104C900000BF00217420015500BF032005B0F0BD06
:104CA0002068006804210840002823D02068C069DB
:104CB00049020840C00A00281CD008462168086242
:104CC00020680068FF21A1318843216808602068BE
:104CD000806840084000216888602020A067E06765
:104CE00020218020015100BF00217420015500BF08
:104CF0000320D3E72068C0692840A84201D10120E1
:104D000000E00020B842A8D00020C7E710B5024854
:104D1000FEF70AFA10BD00004C0200202021020C10
:104D200001D010211046020A01D0104608390209AC
:104D300001D01046091F820801D01046891E420882
:104D400001D0881E7047081A7047F8B582B28BB23E
:104D5000040C0D0C10465843002126465E43370CC8
:104D600036048019794116466E43370C3604801993
:104D7000794126466E438919F8BD000010B5002818
:104D800019DB1A4A03231B02D21883089B00D2584E
:104D90008307DC0EFF23A3409A438B071B0E840777
:104DA000E40EA3401A43114B032424021B19840868
:104DB000A4001A5118E00E4A03071B0F083B9B087A
:104DC0009B00D2588307DC0EFF23A3409A438B0736
:104DD0001B0E8407E40EA3401A43054B0407240F5F
:104DE000083CA408A4001A5110BD000000E100E036
:104DF0001CED00E002E008C8121F08C1002AFAD129
:104E000070477047002001E001C1121F002AFBD14A
:104E10007047000010B50446012210210548FCF738
:104E200019FE204600F022F8002210210148FCF76C
:104E300011FE10BD0004004870B502460B4600206C
:104E400000240DE014780512654029460D116940D3
:104E500005020E0375404E0175404D40A8B2521C2C
:104E60001D465E1EF3B2002DECD170BD30B5044678
:104E7000002505E07D20C00000F005F8681C85B223
:104E8000A542F7DB30BD002106E00B2201E0531EF6
:104E9000DAB2002AFBD1491C8142F6D370470000E8
:104EA000F0B589B006460C4615468A4800780221BE
:104EB000884388490870402287498848FCF7F2F9FE
:104EC00000BF844800788007C00F0028F9D02988E7
:104ED00020881430081A00281DDD21881431804AEA
:104EE000501AFBF73CFA06902A8821881431501A90
:104EF000FBF735FA7B490490FBF7B6F90590069964
:104F0000FBF7EFF978490790FBF755F90746FBF7F0
:104F100031FA307022E0298820881438081A1BD50D
:104F2000218808465F38FBF71AFA06902988084658
:104F30004B38FBF714FA6B490490FBF795F9059091
:104F40000699FBF7CEF907460021FBF734F90790E5
:104F5000FBF710FA307001E06420307069886088D7
:104F60001430081A00281DDD618814315C4A501A7B
:104F7000FBF7F5F906906A8861881431501AFBF73F
:104F8000EEF958490490FBF76FF905900699FBF785
:104F9000A8F955490790FBF70EF90746FBF7EAF920
:104FA000707022E0698860881438081A1BD56188FF
:104FB00008465F38FBF7D3F90690698808464B38F6
:104FC000FBF7CDF947490490FBF74EF90590069998
:104FD000FBF787F900210790FBF7EDF80746FBF791
:104FE000C9F9707001E064207070A988A08814303D
:104FF000081A00281DDDA1881431394A501AFBF720
:10500000AEF90690AA88A1881431501AFBF7A7F9C7
:1050100034490490FBF728F905900699FBF761F9EC
:1050200031490790FBF7C7F80746FBF7A3F9B070C3
:1050300022E0A988A0881438081A1BD5A188084640
:105040005F38FBF78CF90590A98808464B38FBF7C9
:1050500086F924490490FBF707F907460599FBF701
:1050600040F900210690FBF7A6F80790FBF782F9BC
:10507000B07001E06420B070E98808464B38FBF757
:105080006EF91A490190FBF7EFF807461849FBF74C
:1050900028F900210290FBF78EF80390FBF79CF9AA
:1050A0000591049000F08CFA07910690FBF776F9D1
:1050B000F07001210F48FFF79BF80E48C07970711E
:1050C00001210D48FFF794F80B48C079307109B001
:1050D000F0BD00001C0000206A000020EC00002051
:1050E000B40F00000000C6420000CA420000204188
:1050F000009076450C00002004000020F7B584B035
:105100000F46144600260020207000BF08E03978C2
:10511000049808180838805D01A98855701CC6B22B
:10512000082EF4DB002038706846807A0D2839D1CB
:105130006846C07A0A2835D168460079472815D1D3
:105140006846417A0173017A4173042101A8FFF78F
:1051500073FE054668468089A84223D1012020704D
:10516000002060700021A170E1701BE068460079AA
:105170004C2817D16846417A0173017A41730421A2
:1051800001A8FFF759FE054668468089A84209D163
:105190000220207068464079607068468179A1706D
:1051A000C179E17007B0F0BD10B5044660780A49D6
:1051B000887100210848FFF742F8A07807498871F4
:1051C00000210648FFF73BF8E078002802D03220A3
:1051D000FFF720FE10BD0000040000200C0000209E
:1051E0008CB000200090FCF775FFFFF7A9F9FFF7DE
:1051F000ABF8FFF78FF8FFF733F8FFF7F1F8FFF799
:1052000075F9FFF71BF9FFF755F92022BF49C04890
:10521000FEF7C8FF2722BD49BE48FEF7C3FF0022A4
:105220001146BB48FEF7C3FFFF220121B848FEF735
:10523000BEFF00221146B748FEF7B9FFFF22012149
:10524000B448FEF7B4FFFF20B14988710021B0488F
:10525000FEF7F5FFFF20AF4988710021AD48FEF74A
:10526000EEFFAD48007808218843AB490870084636
:105270000078400840000870084600780221884302
:10528000A54908700846007804218843A24908709F
:105290000020A2490870A2490880002108A80173D3
:1052A00041730BA88170C1706846017600209D494A
:1052B0000880FF20F530FCF7EBF99B4800889B49FC
:1052C0000880084600889A49884213D19648418848
:1052D0006846018294488188684641829248C18824
:1052E000684681828C4800780821884308308A49C2
:1052F00008700AE000216846018241828182864866
:10530000007808218843844908703220FFF782FD25
:10531000012288498848FEF703F98848FDF7C0FC58
:105320008748FDF7BDFC00BF7B480078C007C00F71
:10533000002810D0784800780007C00F00280AD055
:105340007548007840084000734908700BAA7D49F1
:105350007D48FFF7D3FE08A8007B012815D16E48D1
:1053600000780007C00F00280FD0784A04A909A8C8
:10537000FFF796FD012168460176002108A8017318
:1053800041730BA88170C17016E008A8007B022849
:1053900012D1614800780007C00F00280CD00BA87C
:1053A000FFF702FF022168460176002108A8017379
:1053B00041730BA88170C1706846007E002813D02D
:1053C000554800780007C00F00280DD009A906A88D
:1053D00000F0C4F864230B2206A901315648FEF7F9
:1053E0003FF90020694608764E4800881E289BD168
:1053F0005248FDF78DFC5248FDF78AFC00204449D5
:10540000887100214248FEF71AFF00204149887147
:1054100000214048FEF713FF3F48007802218843EF
:105420003D49087040224A494A48FBF73BFF00BF0C
:10543000394800788007C00F0028F9D0FCF7FCF944
:10544000012003903848029000200190694601A88D
:10545000FCF734F9364A002333490120FCF78EF972
:105460003A480488224600232F49891C0120FCF772
:1054700085F936484488224600232B49091D01201E
:10548000FCF77CF931488488224600232649891D8F
:105490000120FCF773F9FCF767F923484188684657
:1054A000018221488188684641821F48C188684638
:1054B000818219480078082188430830164908700D
:1054C0002548FCF7E5F8FF201149887100211048B4
:1054D000FEF7B5FEFF200F49887100210D48FEF749
:1054E000AEFE0D480078042188430B490870002067
:1054F0000A4908700A4908801048FDF7D1FB0020CE
:10550000084908800E48FDF7CBFB0DE7700100202D
:10551000040000200C0000201C00002020000020BF
:105520001E0000202400002000FC000822000020B3
:10553000AAAA0000000000204C020020BC010020AC
:105540000402002001000020380000201400002088
:105550006A000020EC00002088130000F8B5044623
:105560000D460D21A1720A21E172207801280ED189
:10557000532060702978A1706978E170A978217151
:10558000E97861712979A1716979E1710BE020787D
:10559000022808D1412060700021A170E1702171C2
:1055A0006171A171E1710721601CFFF745FC06469E
:1055B000009668464178217201786172F8BD00005A
:1055C000F0B513B406460199FBF71EF804460D46E4
:1055D00002460B4630460199FBF708F8064601984B
:1055E0001B4B0F4600280CDA00223046FBF74AF826
:1055F0000CD90022174B30463946FBF757F81DD21D
:1056000014E000223046FBF73DF808D20022124B8E
:1056100020462946FAF7EAFF04460D460EE000222E
:105620000C4B30463946FBF741F807D800220A4BAD
:1056300020462946FAF736FF04460D46019A6900CE
:105640004908D20FD2072046114303B0F0BD000035
:105650000000E0BF0000E03F0000F03F000000005D
:105660000000000001020304060708090000000012
:1056700001020304945600080000002038000000D6
:10568000F44D0008CC56000838000020B806000091
:10569000044E0008000000000000000000000000B0
:1056A00000000000000000000000000000000000FA
:1056B00000000000000000000000000000000000EA
:0C56C000040000000100000000127A004D
:04000005080000B53A
:00000001FF
