:020000040800F2
:1000000020050020C9000008451B0008171400083F
:1000100000000000000000000000000000000000E0
:10002000000000000000000000000000491B000864
:100030000000000000000000471B00084B1B0008E8
:10004000DB00000800000000DB000008DB00000807
:10005000DB000008DB000008DB000008DB00000814
:1000600000000000DB000008DB000008DB000008E7
:10007000FD010008DB000008DB00000800000000B4
:10008000DB000008DB00000800000000DB000008C7
:10009000DB000008DB000008DB000008DB000008D4
:1000A00019140008DB000008DB000008191F000815
:1000B000DB0000080348854600F08EF80048004742
:1000C000BB1F000820050020044880470448004763
:1000D000FEE7FEE7FEE7FEE7FEE7FEE7CB1B0008D4
:1000E000B500000830B50B4601460020202201244F
:1000F00009E00D46D5409D4205D31D469540491B5C
:100100002546954040191546521E002DF1DC30BDA4
:10011000F0B51FB40646002082B005464024019188
:1001200000901BE0019922460F46304600F020F86F
:10013000049A059B801A994110D31046194622460D
:1001400000F039F8361A8F4101972246012000212C
:10015000009F00F030F838184D4100902046641E92
:100160000028DFDC019B00982946324607B0F0BD2D
:1001700010B5202A04DB0846203AD040002110BDEB
:100180000B46D340D0402024A21A91400843194680
:1001900010BDD2B201E00270401C491EFBD2704774
:1001A0000022F6E710B513460A4604461946FFF743
:1001B000F0FF204610BD10B5202A04DB0146203A8E
:1001C0009140002010BD914020239C1A0346E3403B
:1001D0001943904010BD0000064C0125064E05E075
:1001E000E36807CC2B430C3C98471034B442F7D358
:1001F000FFF764FFEC1F00080C20000810B5024850
:1002000000F08EF810BD000010000020F8B50025A9
:10021000044620340095227D012A39D0012222751E
:1002200003689E68760767D4384F4E68BE424DD04B
:100230009E6A0F78BA4016439E620123C26A1B076A
:100240009A421FD0012A1DD0022A1BD0032A19D09E
:10025000042A17D0052A15D0062A13D0072A11D050
:1002600002688B6856697607760FB3420AD05369E5
:10027000DB08DB005361006842690B7A5B075B0FA8
:100280001A4342610A68102A04D0112A02D038E0C9
:100290000220F8BD1E488368102A07D0012292056B
:1002A000134383600868102803D02AE00122D20596
:1002B000F6E7194817490068FFF714FF0A21484379
:1002C00000E0401E00900028FBD11AE0986A0E78EA
:1002D000B240904398620968102901D0112910D1C9
:1002E0000B488268102904D0012189058A43826065
:1002F00007E00121C905F9E7816B202211438163E1
:100300000125002020752846F8BD000001100000DE
:100310000027014040420F000C000020704770474A
:1003200070B5044600680168490702D5416849076D
:1003300005D40168090730D5416809072DD5A16B9F
:10034000C90604D4A16B012252021143A163C16802
:100350000C250905890F00291AD1A17E002917D182
:100360000168090714D581684A070121002A08DBC2
:100370004268AA434260A06B0A0290430843A0630C
:1003800006E0A06B20221043A063E06B0843E0630B
:100390002046FFF7C3FF2068056020680168090652
:1003A0000DD5406800060AD5A06B01210904084359
:1003B000A063204600F0D8F82168802008602068FB
:1003C0000168C90613D54168C90610D5A16A102570
:1003D000012902D0C168C90707D0E16B022211438D
:1003E000E16305602046FFF79AFF2068056070BD55
:1003F000F8B500260446002805D0A06B2546203518
:10040000002802D007E00120F8BD0020E063287535
:10041000204600F0ABF8A06B1022C006002870DB6D
:100420002068816849076CD4A16B130199430223AA
:100430001943A16381688907890F012905D10168E2
:10044000C9070FD1C16809040CD4C16818239943A6
:10045000A3681943C160206801696368890089083D
:10046000194301612068C1683D4B1940C160207E7D
:10047000617E8003C9030843A17E4B031843A36A2E
:10048000012B02D001231B0300E000231843E36883
:1004900018432369022B09D0002318432B79E57EEA
:1004A0005B0018430123012D02D00AE00423F4E786
:1004B000002927D0A16B20252943A163E16B1943B3
:1004C000E163E1690D46FF3DC23D02D0256A294343
:1004D00008432168CD680543CD600125E16A2D07F9
:1004E000A94213D0012911D002290FD003290DD020
:1004F00004290BD0052909D0062907D0072905D0E2
:1005000010E028E0012109040843DAE721684D6979
:10051000ED08ED004D6121684D69A78D7F077F0FC4
:100520003D434D612168C9680E4D2940814207D184
:100530000020E063A06B80088000401CA06308E0FE
:10054000A06B022188431043A063E06B1843E06373
:1005500001263046F8BDA06B1043A063F8E7000009
:100560001902FEFFE7FF3F837047000010B586B019
:10057000044614216846FFF713FE14492068884298
:1005800021D11348826941150A43826182690A4078
:100590000592426909020A43426140690840059098
:1005A0003C20009003200190002002900920694621
:1005B000C00600F057F8002211460C2000F08CFA1B
:1005C0000C2000F07DFA06B010BD000000240140B0
:1005D0000010024030B5014620314B780022022B3A
:1005E00004D0042383630A70012030BD03681C68B3
:1005F0000E25AC431C6003681C68640864001C6022
:100600000123056C1C46C06BAC4044604B700A7003
:10061000002030BD70B50024014620314A78022AFE
:1006200003D004218163012416E0026813680E25BB
:10063000AB431360026813685B085B001360012220
:10064000056C1346AB40C56B6B604A7000220A70A4
:10065000416B002900D08847204670BD203040788B
:1006600070470000FCB500230124A1E027462A467C
:100670009F403A4073D04D68012D05D0022D03D024
:10068000112D01D0122D16D185680326AC465D00D0
:10069000AE46AE406546B543AC46CE687546AE4004
:1006A00065462E43866046680D79BE43ED06ED0F24
:1006B0009D4035434560C6685F000325BD40AE469A
:1006C000AE4335468E68BE402E43C6604E68022E4D
:1006D00001D0122E14D1DE08B60036180196366A03
:1006E0005D07B446EE0E0F25B54000966646AE4354
:1006F000B4460D69009EB54066462E43019D2E62AC
:1007000006687546AE430D79AD07AD0FBD40354364
:1007100005604D68ED004AD5284DAE692643AE61AF
:10072000AD699E08ED07ED0F0095254DB6007519D2
:10073000AC46AD689E07360F0F27B740BD4309276B
:10074000FF06B84201D1002710E01E4FB84201D188
:1007500001270BE01C4FB84202D1022706E026E039
:100760001A4FB84201D1032700E00527B7402F43B5
:100770006546AF60164E35684F689543FF0300D558
:100780001543356075684F689543BF0300D5154321
:100790007560B5684F689543FF0200D51543B56095
:1007A000F5684F689543BF0200D51543F5605B1CA3
:1007B0000A681546DA4000D058E7FCBD0010024038
:1007C000000001400004004800080048000C0048F8
:1007D00000040140002A01D08161704781627047A6
:1007E00001488068704700000000002070B5024694
:1007F00040325378202B1CD11378012B19D00123C0
:10080000137024245470046825689D43256004688F
:1008100025681E03B5432560046825680D432560DF
:10082000006801681943016020205070002010709A
:1008300070BD022070BD70B5024640325378202B47
:100840001BD11378012B18D001241470242353706A
:1008500003681D68A5431D6005682B680F263602D6
:10086000B34309021943296000680168214301600C
:10087000202050700020107070BD022070BD7047A5
:10088000704770B503689A691968D243D40508D4D3
:10089000CC43240605D4446C01252C4344642C022B
:1008A000DC61530509D4CB431B0606D4436C0824F2
:1008B00023434364E3010468E361920509D4C94317
:1008C000090606D4416C02221143416411020268F8
:1008D000D161416C0B22114201D000F033FE70BD9A
:1008E000026891691268436B002B00D0184770476B
:1008F0007047000070B5040006D025464035687882
:100900000026002802D005E0012070BD2E70204690
:1009100000F04CF8242068702068016849084900FC
:1009200001600F2160680906884321680861216819
:100930008A680120C00382438A60E1680129A168B6
:1009400008D021229202114322689160E1680229B5
:1009500002D005E00143F7E701212268C902516096
:1009600021684A680F4B1A434A602168CA6882436B
:10097000CA60616920690843A169090208432168C6
:10098000C860216AE069084321680860206801683E
:100990000122114301606664202068702663AE70F6
:1009A000002070BD008000027047000010B586B0C6
:1009B000044614216846FFF7F3FB16492068884275
:1009C00026D1154C61690120800401436161616990
:1009D0000140059103208002009012200121019026
:1009E000032002910491039069460C48FFF73AFEF8
:1009F000E169012080050143E161E16900220140D4
:100A000005911146182000F067F8182000F058F8FA
:100A100006B010BD0058004000100240000400481D
:100A20007047704702488168027889188160704772
:100A30000000002010B50648016810221143016033
:100A4000002000F007F800F027F8002010BD00009B
:100A50000020024070B504460D4D7D202978C0006D
:100A6000FFF740FB01460B480068FFF73BFB00F037
:100A700043FB002809D1042C07D200222146401E46
:100A800000F02AF800206C6070BD012070BD0000ED
:100A9000000000200C00002008B5084881690122F0
:100AA00011438161816911400091C26901040A43C7
:100AB000C261C0690840009008BD000000100240FB
:100AC000002805DBC106C90E0120884001490860E5
:100AD0007047000000E100E010B501F03DFA10BDE4
:100AE000F8B505460068354CC00352D5E0690026CC
:100AF000C00007D4E16920040143E161E1690140DC
:100B0000012600912E480168C90510D4016882159C
:100B100011430160FFF764FE074604E0FFF760FE43
:100B2000C01B642824D826480068C005F6D5206A72
:100B300003273F02384020D06968394081421CD0E9
:100B4000206A226AB843012109040A432262226A08
:100B50008A4322622062C0070FD0FFF741FE009057
:100B600008E0FFF73DFE0099411A1648814201D97D
:100B70000320F8BD206A8007F3D5206A6968B8436E
:100B800008432062002E04D0E16901200007814360
:100B9000E1612878C00705D0206BA9688008800033
:100BA000084320632878800605D5206B10218843F0
:100BB000E968084320630020F8BD000000100240EF
:100BC0000070004088130000F8B50F46060059D0A9
:100BD0003A4D2868C007C00FB84209D228684008BB
:100BE0004000384328602868C007C00FB84249D188
:100BF0003068334C81070CD5400704D56068072165
:100C00000902084360606068F0218843B1680843C6
:100C100060603078C00726D0706801280ED0216847
:100C200002280ED0890700292CDA6168890889001A
:100C300001436160FFF7D4FD00900DE02168890356
:100C4000F1E78901EFE7FFF7CBFD0099411A1D4855
:100C5000814201D90320F8BD60680C210840716809
:100C600089008842EFD12868C007C00FB8420BD96D
:100C7000286840084000384328602868C007C00F33
:100C8000B84201D00120F8BD3078400706D5606831
:100C9000072109028843F1680843606000F028F8E2
:100CA0006168094A0906090F515CC8400749086094
:100CB0000020FFF7CFFE0020F8BD0000002002401A
:100CC0000010024088130000D41F00080C00002010
:100CD0000448054900684968044A4905490F515CC0
:100CE000C84070470C00002000100240E41F0008BC
:100CF00010B514A30FCB88B06C460FC415A30FCB4F
:100D00000FC4184A51680C200B4603401648042BA8
:100D100016D0082B14D18B021B0F6C46E45CD26AF0
:100D200004AB1207120F9A5CC90305D500231946BC
:100D3000FFF7EEF9214601E020460C4901F0F4F8F6
:100D400008B010BD02030405060708090A0B0C0DC4
:100D50000E0F10100102030405060708090A0B0C08
:100D60000D0E0F100010024000127A0000093D0025
:100D7000FEB5040070D02078DC4DC0074AD068680A
:100D80000007800F012807D068680007800F02283D
:100D900009D16868C00306D5286880033AD5606821
:100DA0000028E7D036E06168012914D001208004D2
:100DB000002901D0052914D02A68012109048A4399
:100DC0002A602968814329606068002816D0FFF7EF
:100DD00007FD06460EE02868012109040843286043
:100DE000F2E7296801432960F5E7FFF7F9FC801B6A
:100DF00064286ED828688003F7D50BE0FFF7F0FC75
:100E0000064604E0FFF7ECFC801B6428F1D8286854
:100E10008003F7D420780126800700283CDA686830
:100E20000007800F07D068680007800F022809D1EB
:100E30006868C00306D42868800716D5E0680128D2
:100E40000AD112E0E0680028286816D030432860F4
:100E5000FFF7C6FC074605E043E1FFF7C1FCC01BF6
:100E60000228C6D828688007F7D52868F821884363
:100E70002169C900084328600EE04008400028604E
:100E8000FFF7AEFC074604E0FFF7AAFCC01B0228F0
:100E9000AFD828688007F7D42078000722D5E0690A
:100EA0000028686A0ED030436862FFF799FC074655
:100EB00004E0FFF795FCC01B02289AD8686A8007F7
:100EC000F7D50FE0400840006862FFF789FC07464D
:100ED00005E09DE0FFF784FCC01B022889D8686A02
:100EE0008007F7D4207804274007002860DA002024
:100EF0000190E869C00008D4E969B8060143E961D6
:100F0000E969014001200091019079480168C90513
:100F100011D40168821511430160FFF761FC009054
:100F200005E0FFF75DFC0099401A642870D870480E
:100F30000068C005F5D5A06801280AD0002801D0B6
:100F4000052810D0286A400840002862286AB84363
:100F500001E0286A30432862A068002812D0FFF719
:100F60003FFC00900AE0286A38432862F1E7FFF767
:100F700037FC0099411A5F48814249D8286A8007A6
:100F8000F5D50DE0FFF72CFC009006E0FFF728FCFC
:100F90000099411A574881423AD8286A8007F5D407
:100FA0000198002804D0E969012000078143E96124
:100FB0002078C00635D5606901280CD0401D686BCB
:100FC00023D038436863686B400840006863FFF7CC
:100FD00007FC064622E0686B38436863686B304361
:100FE0006863FFF7FDFB064604E0FFF7F9FB801B93
:100FF00002285BD8686B8007F7D5686BF8218843B7
:10100000A169C900084368630BE0B8436863F4E76B
:101010004CE0FFF7E5FB801B022847D8686B800790
:10102000F7D4206A00285ED069680907890F022971
:1010300042D0012636060228286805D0B043286031
:10104000FFF7CEFB044633E0B0432860FFF7C8FB50
:10105000074604E0FFF7C4FBC01B022826D8286817
:101060008001F7D4E86AE16A000900010843E862F8
:10107000616AA06A084369683D22120491430843EB
:101080006860286830432860FFF7AAFB044604E044
:10109000FFF7A6FB001B022808D828688001F7D5B7
:1010A00021E0FFF79DFB001B022801D90320FEBDB4
:1010B00028688001F5D416E00128F8D06868E96A4C
:1010C00001221204636A02409A420AD10907E26AC5
:1010D000090F914205D10F2189040840A16A884275
:1010E00001D00120FEBD0020FEBD00000010024026
:1010F0000070004088130000094910B5401E884266
:1011000001D9012010BD074C60610321081F00F0C8
:1011100023FF0020A06107202061002010BD0000F7
:10112000FFFFFF0000E000E070477047F8B502687D
:101130000446D069116896687B4B05461D40202304
:10114000002D6CD0F707794DFF0FBC460D402F43A3
:1011500079D02546C7078035002F06D0CF0504D5A6
:10116000012717622A683A432A60820708D5F207E6
:1011700006D0276802223A622A6804273A432A6086
:10118000420708D5F20706D02668042232622A6890
:10119000022632432A6002070AD50A461A406646EA
:1011A000324305D02668082232622E6816432E602C
:1011B000020508D54A0106D501222668D20232620C
:1011C0002A681A432A602A68002A30D0800606D589
:1011D000880604D5616E002901D02046884728681A
:1011E00021688968490602D42821084225D0204672
:1011F00000F08EFD20688168490619D5826840217B
:101200008A438260206F002812D049494163206FD1
:10121000FFF700FA00280AD0206F416B06E0850630
:1012200011D58D060FD5616E6BE020468847F8BD5D
:101230002046FFF77AFFF8BD05E02046FFF775FF6F
:1012400000202860F7E7256E012D55D1C50653D53E
:10125000CD0651D5102616622068816825464906BC
:101260004035002929DA226F116849680904090C00
:10127000E1D02F8B8F42DED969839169202917D065
:101280000168320191430160206881684908490082
:1012900081602068826840218A438260E367002081
:1012A000206620680168B1430160206FFFF792F962
:1012B000288B698B401A81B21AE0298B6A8B891AB4
:1012C0006A8B89B2002AB6D00029B4D00268FF2503
:1012D0002135AA4302602068826852085200826069
:1012E000E36700202066606620680268B2430260FF
:1012F0002046FFF719FF9EE7050605D50D0603D525
:10130000A16E002991D196E7400694D5480692D562
:101310002046146840218C43146083670021816655
:1013200000F078F887E700000F08000020010004B3
:10133000FD1C000810B5040003D0A06F002802D0E7
:1013400007E0012010BD002174200155204600F067
:1013500027F82420A0672068016849084900016037
:10136000204600F0EFFC0128ECD0606A002802D093
:10137000204600F02BFC206841680122D2029143F4
:10138000416020688168082291438160206801687B
:10139000012211430160204600F07EFC10BD0000D8
:1013A00010B586B0044614216846FEF7F9FE1749C9
:1013B0002068884227D116488269012189030A439F
:1013C000826182690A4005924269C9000A4342610A
:1013D00040690840059003204002009002200190DF
:1013E0000020029003200390012004900920694608
:1013F000C006FFF737F9002211461B20FFF76CFBF0
:101400001B20FFF75DFB06B010BD00000038014057
:10141000001002407047FEE710B50648006880697A
:101420004005400F034802D0FFF72BFA10BDFFF72D
:1014300057FA10BD5000002010B5406A0021826BA1
:10144000002A00D05163C26B002A00D0516300F023
:101450008FFA10BDF0B504460022CE074034282391
:10146000B025002E05D0667842221F46B74300D033
:10147000F2228E0705D5442664783243A34300D078
:101480002A43CB0B01D0B8231A43102908D02029B6
:1014900007D0402905D00068016891430160F0BD84
:1014A00090210A43F7E701688A69D243920701D481
:1014B00000228A6200688169C943C90703D0816933
:1014C0000122114381617047F8B505460446403555
:1014D000687828218143206804D00821C161002058
:1014E0002870F8BD8169C903CF0F8169FE230E0CF6
:1014F00081681E408A05C168920D19408C46E168DA
:10150000022916D10621D3090E400B409E420FD16D
:10151000A16C491CA164A16C0229E2D10021A16443
:101520000823C361297039462046FFF7A9F9F8BDA1
:1015300066460121C9032046FFF78CFF0020287072
:101540003246F0E7F8B5054604464035687800268F
:10155000AE70334AE2626685626C0A436264282890
:101560001ED029281CD02A281AD02E492046FFF741
:1015700071FF6878602801D0202068706663206B56
:10158000A16B294F002903D0112812D0212810D097
:10159000E16B002925D0122827D0222825D020E071
:1015A00003212046FFF756FF282068701F4860631C
:1015B000E5E720680168490404D501680122920327
:1015C00091430160A06BFFF749F8012809D0A06B97
:1015D00047632E70A06BFFF71DF8002804D0A06BA6
:1015E0001AE0204600F0C4F9F8BD2068016809043B
:1015F00004D501680122D20391430160E06BFFF73B
:101600002DF80128EDD0E06B47632E70E06BFFF7FB
:1016100001F80028E8D0E06B416B8847F8BD000076
:101620000000FFFF03800000391400084118000883
:1016300070B504461648E062002525632022204646
:101640004030064642708570C8436563400712D437
:101650002068406A616A0870606A401C6062208D80
:10166000002808D0401E2085608D401E6085606C7B
:1016700004210843606407492046FFF7EBFE216818
:101680001020C86135702046FFF78EF970BD00004C
:101690000000FFFF03800000F8B5026804461668EA
:1016A0000546403568780F462021D161212806D0B3
:1016B000292804D0222808D02A2806D00CE0424944
:1016C0002046FFF7C7FE212005E03F492046491C80
:1016D000FFF7C0FE22202063206841680122D20368
:1016E0001143416020684168384A114041602046FA
:1016F000FFF7D9FEF043410407D4206801680122B6
:10170000920391430160A06B08E000040BD42068B1
:1017100002680121C9038A430260E06B002802D0FD
:10172000006840686085F8434007042100280FDB0B
:1017300020688F43406A626A1070606A401C606271
:10174000208D002804D0401E2085608D401E6085BD
:10175000608D002802D0606C084360640026AE7083
:101760006663606C00280BD0616C2046FFF7EAFED0
:101770006878282803D139462046FFF759FFF8BD7D
:10178000E06A134FB8420BD0204600F023F8E7621E
:101790002020687026632E702046FFF705F9F8BDFB
:1017A0006878222807D02020687026632E70204693
:1017B000FFF737F9F8BD2020687026632E702046A9
:1017C000FFF72EF9F8BD00000180000000E800FEE0
:1017D0000000FFFF70B505460068016800262C4632
:1017E0004034A670C9434A0403D40168012292031D
:1017F00004E0090404D401680122D203914301608A
:101800006178282029290ED061782A290AD16070B0
:101810002220286302212846FFF71CFE2670284656
:10182000FFF7FEF870BD6070212028630121284673
:10183000FFF710FE26702846FFF7F3F870BD000092
:10184000FEB5C56A04460646403601913078012847
:1018500028D0012030700198D743C0430090800603
:10186000002805DBB80603D420460199FFF714FFD2
:1018700000983D493D4AC00630D4F8062ED4638D09
:101880001020002B10D02168C861606C042108432F
:101890006064002D01D0954262D1616C2046FFF753
:1018A00051FE5DE00220FEBD7278282A08D1012297
:1018B0005206954204D120460199FFF7B9FE4FE048
:1018C0007278292A07D18D4205D02168C861204647
:1018D000FFF7E9FD41E02168C86141E00098400759
:1018E00017D4780715D4608D00280CD02068406A82
:1018F000626A1070606A401C6062208D401E208504
:10190000608D401E6085608D002829D18D4224D1D4
:1019100026E00098000706D4380704D42046019931
:10192000FFF7D2FD1CE00098800719D4B80717D440
:10193000608D00280DD0606A216800788862606A36
:10194000401C6062608D401E6085208D401E208599
:1019500006E0954201D0002D02D12046FFF73AFF64
:1019600000203070FEBD00000000FFFF00000001FD
:1019700010B5014640314B780022602B04D0026341
:101980000A70FEF7B5FF10BD20234B7002630A708A
:10199000FEF775FF10BD00003EB5002126480091FE
:1019A00001910291234A4160026003468160012255
:1019B00004240C3316C3017641768176FF23C17669
:1019C000C233C36103460162203319718262FEF79C
:1019D0000FFD002801D072B6FEE702200090C00281
:1019E00001900004029069461348FEF70FFC00289E
:1019F00001D072B6FEE70320009069460E48FEF75C
:101A000005FC002801D072B6FEE769460A4800943A
:101A1000FEF7FCFB002801D072B6FEE7052000901F
:101A200069460548FEF7F2FB002801D072B6FEE7D2
:101A30003EBD0000002401401000002030B587B0FA
:101A400014216846FEF7ACFB18484269012189055C
:101A50000A43426142690A400592426949110A43B8
:101A6000426142690A400592426949000A43426163
:101A700040690F4D08400590002210212846FEF7CE
:101A8000A9FE0620009000200224019069460294DD
:101A90002846FEF7E7FD102001216A4613C2039194
:101AA00069462846FEF7DEFD07B030BD0010024053
:101AB0000004004810B51348114901601249416003
:101AC000002181600161416181610122C161C260C7
:101AD0000162FEF70FFF002801D072B6FEE7002179
:101AE0000848FEF783FE002801D072B6FEE7002109
:101AF0000448FEF7A0FE002801D072B6FEE710BD34
:101B000000580040500000205D3E302010B50C48C9
:101B10000A4901604B210902416000218160C160D6
:101B200001618161C1610C22016242614162FFF782
:101B300001FC002801D072B6FEE710BD003801405C
:101B40009C000020FEE77047704710B5FEF76AFF63
:101B500010BD70B594B030216846FEF721FB00241B
:101B600001250F94112005951094009001951020E7
:101B700006900E941394000309900D9400010C94A8
:101B8000129402260A90119408960B946846FFF767
:101B9000EFF8002801D072B6FEE707200C900E94F3
:101BA00001210D960F940CA8FFF70EF8002801D024
:101BB00072B6FEE710A810951294FEF791FF002868
:101BC00001D072B6FEE714B070BD704710B5818CBD
:101BD000C90707D001684A6801235B049A43836AF6
:101BE0001A434A60818C890707D501684A68012336
:101BF0001B049A43C36A1A434A60818C490707D57C
:101C000001684A6801239B049A43036B1A434A60A4
:101C1000818C090707D501684A680123DB039A43D1
:101C2000436B1A434A60818CC90607D502689168E4
:101C300001231B039943836B19439160818C8906AF
:101C400007D501688A6801235B039A43C36B1A4373
:101C50008A60818C490612D503685A6801210905FA
:101C6000046C8A4322435A60026C8A4207D102689C
:101C7000516803235B059943436C19435160818C80
:101C8000090607D501684A680123DB04806C9A4382
:101C900002434A6010BD0000F8B5044600268030BB
:101CA0000660FEF79DFD054620680068124F00079C
:101CB00009D501212B46002249052046009700F056
:101CC000DBF800280DD12068006840070BD5012102
:101CD0002B46002289052046009700F0CDF8002809
:101CE00001D00320F8BD2020A067E067266660349D
:101CF00026750020F8BD0000FFFFFF0110B5406A07
:101D00000022014640314A834A82FFF70EFA10BD95
:101D100001680A68FF2321339A430A6001688A68D0
:101D2000520852008A60016E012904D101680A68D4
:101D300010239A430A602021C16700210166416691
:101D40007047000070B5044680682169E269084365
:101D5000616900251143226808431168404B19400E
:101D60000143116021684868032212039043E2682E
:101D700010434860A169206A084321688A680B23E0
:101D80001B029A4302438A6036492068884210D178
:101D90003548006B8007800F0ED0012805D002283F
:101DA00005D003280AD1022109E0042107E0082117
:101DB00005E02E49884201D1002100E010210120D8
:101DC000E369C0032A4A2B4E834223D1002906D05F
:101DD000022907D0042907D0082937D108E0FEF7E7
:101DE00077FF03E0104603E0FEF782FF002831D0C2
:101DF000616840004A088018FEF774F980B2014615
:101E00001039B14222D81B49491C01400007400F3C
:101E100008431DE0002906D0022907D0042907D075
:101E2000082913D108E0FEF753FF03E0104603E052
:101E3000FEF75EFF00280DD061684A081018FEF713
:101E400051F980B201461039B14201D9012501E0B2
:101E50002168C86000206066A066284670BD00004A
:101E6000F369FFFF003801400010024000440040C9
:101E700000127A00EFFF0000FFB581B005460F4663
:101E8000044660350A9E39E0701C37D0FEF7A8FC86
:101E90000499401AB04222D8002E20D02068016850
:101EA00049072BD5C069C043000527D4012021680C
:101EB000C002086220680168FF22A13291430160DC
:101EC000206881684908490081602020A067E06798
:101ED0008034206000202875032005B0F0BD206804
:101EE0000168FF22A132914301602068816849089E
:101EF000490081602020A067E067EBE72068C169A6
:101F00003846884305D0002103988142BCD0002088
:101F1000E3E70121F8E7000010B50248FFF706F9F2
:101F200010BD00009C000020F8B5040C8BB22646C2
:101F300082B25E430D0C1046370C584336048019AC
:101F40000021794116466E43370C360480197941D9
:101F500026466E438919F8BD8307FF22DB0E9A409F
:101F60008907090E9940002808DB830809489B006F
:101F70001B18186890430843186070470007000F4B
:101F80000838830804489B001B18D869904308430D
:101F9000D861704700E400E000ED00E002E008C80E
:101FA000121F08C1002AFAD170477047002001E0D3
:101FB00001C1121F002AFBD17047FEF73BFDFFF75E
:101FC000C8FDFFF73BFDFFF7E7FCFFF773FDFFF7E9
:101FD0009DFDFEE700000000000000000102030478
:101FE0000607080900000000010203040C20000895
:101FF00000000020100000009C1F00081C200008AA
:102000001000002010050000AC1F000801000000B7
:0C201000040000000000000000127A0034
:04000005080000B53A
:00000001FF
